:1000000018C032C031C030C02FC02EC02DC02CC08F
:100010002BC053C129C028C027C026C025C024C07A
:1000200023C022C021C03F065B4F666D7D077F6FF6
:10003000000011241FBECFE5D4E0DEBFCDBF10E02D
:10004000A0E6B0E0E0E4F4E002C005900D92A23634
:10005000B107D9F710E0A2E6B0E001C01D92AD36BD
:10006000B107E1F795D0EAC100C01F920F920FB619
:100070000F92112418950F900FBE0F901F90189596
:10008000369A3699FECF94B185B1382F20E0290FEA
:10009000311DC9010895EF92FF920F931F93E090D5
:1000A0006900F0906A0000916B0010916C00C8012B
:1000B000B7012AE030E040E050E083D1D801C70129
:1000C000861B9109A109B1098093690090936A0088
:1000D000A0936B00B0936C00663058F00A96A11D97
:1000E000B11D8093690090936A00A0936B00B09358
:1000F0006C006091690070916A0080916B00909132
:100100006C002AE030E040E050E05BD179018A01E8
:10011000C801B7012AE030E040E050E052D1E61AD1
:10012000F1080109110960936600C801B7012AE0CE
:1001300030E040E050E045D179018A01C801B701C3
:100140002AE030E040E050E03CD1E61AF108010935
:10015000110960936700C801B7012AE030E040E070
:1001600050E02FD1C901DA018093690090936A00B1
:10017000A0936B00B0936C000097A105B10509F442
:100180008AE0809368001F910F91FF90EF9008958F
:100190001F93CF93DF9380E888B982EC87B984E816
:1001A00086B98FEF87BB87E081BB88B318BA82B36B
:1001B000887F82BBF8942FE088E190E00FB6F89436
:1001C000A89581BD0FBE21BD83E083BF81E089BFBB
:1001D000789410926300109262001092640012EC06
:1001E000A89517B920E060E070E0369A3699FECF06
:1001F00094B185B1D82FC0E0AE01490F511D640FF5
:10020000751F2F5F203189F734E0769567953A9511
:10021000E1F780E090E028E833E140E050E0B2D040
:100220002AE095958795779567952A95D1F76093FC
:10023000690070936A0080936B0090936C002BDFD1
:10024000A8951092630010926200809162009091D4
:1002500063008A3F9105C8F3C3CF82B3876082BB36
:1002600018BA089580FF02C0C69A01C0C69881FFDF
:1002700002C0C09A01C0C09882FF02C0C29A01C0E9
:10028000C29883FF02C0C49A01C0C49884FF02C010
:10029000C59A01C0C59885FF02C0C79A01C0C7981A
:1002A00086FF02C0C19A01C0C1988091650081306B
:1002B00011F4C3980895C39A08951F920F920FB630
:1002C0000F9211242F933F934F935F936F937F93DC
:1002D0008F939F93AF93BF93EF93FF938EEB82BF68
:1002E00082B3876082BB18BA88EC90E00197F1F77F
:1002F00080916400813019F41092650003C081E0A0
:100300008093650080916400813039F0813018F06D
:10031000823031F404C0909803C0919801C0929843
:10032000E0916400F0E0EA59FF4FE081F0E0EA5D1F
:10033000FF4FE4918E2F96DF80916400823019F494
:100340001092640005C0809164008F5F8093640008
:100350008091620090916300019690936300809376
:100360006200FF91EF91BF91AF919F918F917F912B
:100370006F915F914F913F912F910F900FBE0F9012
:100380001F901895629FD001739FF001829FE00D2E
:10039000F11D649FE00DF11D929FF00D839FF00D04
:1003A000749FF00D659FF00D9927729FB00DE11DB0
:1003B000F91F639FB00DE11DF91FBD01CF0111248D
:1003C000089597FB092E05260ED057FD04D014D0B2
:1003D0000AD0001C38F450954095309521953F4F38
:1003E0004F4F5F4F0895F6F7909580957095619502
:1003F0007F4F8F4F9F4F0895A1E21A2EAA1BBB1B60
:10040000FD010DC0AA1FBB1FEE1FFF1FA217B307E0
:10041000E407F50720F0A21BB30BE40BF50B661FF6
:10042000771F881F991F1A9469F7609570958095BA
:1004300090959B01AC01BD01CF010895F894FFCFC9
:0204400088131F
:00000001FF
