:020000040800F2
:10000000B807002059010008550C0008C30A000871
:1000100000000000000000000000000000000000E0
:10002000000000000000000000000000291200088D
:100030000000000000000000C90C0008791300084F
:1000400089010008000000008901000889010008FA
:100050008901000889010008890100088901000858
:1000600000000000710600088901000889010008ED
:1000700089010008890100088901000800000000CA
:10008000890100080000000000000000890100084C
:100090008901000889010008890100088901000818
:1000A0008901000889010008890100088901000808
:1000B0008901000800F002F800F03EF80CA030C8FA
:1000C000083824182D18A246671EAB4654465D46D4
:1000D000AC4201D100F030F87E460F3E0FCCB64660
:1000E0000126334200D0FB1AA246AB4633431847E1
:1000F000A4140000C4140000103A02D378C878C1D8
:10010000FAD8520701D330C830C101D504680C6059
:10011000704700000023002400250026103A01D378
:1001200078C1FBD8520700D330C100D50B607047AF
:100130001FB51FBD10B510BD00F018F91146FFF72F
:10014000F7FF01F0DBF900F030F903B4FFF7F2FF3D
:1001500003BC00F037F900000F4880F308880F480F
:100160000168090E0E4A914205D10E480E49016000
:100170000E480F4901600F4880470F480047FEE7CF
:10018000FEE7FEE7FEE7FEE7FEE700000B480C494E
:100190000C4A0D4B70470000B80700200400000017
:1001A0001F00000018100240010000000000014084
:1001B0000000000095130008B5000008B8010020F9
:1001C000B8070020B8030020B803002001E004C0F5
:1001D000091F0429FBD28B0701D50280801CC907A7
:1001E00000D00270704700290BD0C30702D0027004
:1001F000401C491E022904D3830702D50280801CBB
:10020000891EE3E70022EEE70022DFE70022030970
:100210008B422CD3030A8B4211D300239C464EE021
:1002200003460B433CD4002243088B4231D30309DD
:100230008B421CD3030A8B4201D394463FE0C3098F
:100240008B4201D3CB01C01A524183098B4201D3A7
:100250008B01C01A524143098B4201D34B01C01A92
:10026000524103098B4201D30B01C01A5241C3080A
:100270008B4201D3CB00C01A524183088B4201D379
:100280008B00C01A524143088B4201D34B00C01A65
:100290005241411A00D201465241104670475DE07A
:1002A000CA0F00D04942031000D3404253400022FD
:1002B0009C4603098B422DD3030A8B4212D3FC22A6
:1002C000890112BA030A8B420CD3890192118B4225
:1002D00008D3890192118B4204D389013AD092113B
:1002E00000E08909C3098B4201D3CB01C01A5241F6
:1002F00083098B4201D38B01C01A524143098B42BF
:1003000001D34B01C01A524103098B4201D30B01A7
:10031000C01A5241C3088B4201D3CB00C01A5241CC
:1003200083088B4201D38B00C01A5241D9D24308B3
:100330008B4201D34B00C01A5241411A00D20146F0
:10034000634652415B10104601D34042002B00D55A
:100350004942704763465B1000D3404201B500201C
:10036000C046C04602BD704770477047754600F0F2
:1003700025F8AE46050069465346C008C0008546CC
:1003800018B020B5FFF702FF60BC00274908B64649
:100390000026C0C5C0C5C0C5C0C5C0C5C0C5C0C594
:1003A000C0C5403D49008D46704710B50446C04663
:1003B000C0462046FFF7C9FE10BD00000048704748
:1003C0005401002001491820ABBEFEE726000200C0
:1003D000704710B50B460021846A1C43846200BF3D
:1003E0000C4614432146416110BD002904D08268A7
:1003F00001231A43826003E0826802231A43826069
:100400007047002904D0C26801231A43C26003E088
:10041000C26852085200C2607047C26802239A4301
:10042000C260C2680A43C2607047000010B504464B
:100430000548844207D10121401500F077FC0021D6
:10044000601500F073FC10BD0024014030B501467A
:100450000020002200238C680125ED072C438C60CE
:1004600000BF8C68E30FDB07521C0F242403A24259
:1004700001D0002BF5D18C68E40FE407002C01D1EA
:10048000086C00E0002030BD30B50246002000239B
:10049000012424060C40002C05D0946801252D066B
:1004A000AC43234600E013681C460C40002C01D0EE
:1004B000012000E0002030BD10B50022C268084BCA
:1004C0001A400C7964030B6823438C682343CC687F
:1004D00023430C6923434C6923431A43C26010BD74
:1004E00003D2FFFF00B595B00121480400F0EEFBF8
:1004F0000121880400F0EAFB0121084600F0E6FB38
:100500000121480200F002FC40201390032110A8B2
:1005100001740021C17413A90920C00600F0D2F9AA
:1005200002201390032110A801740021C17413A9A3
:100530003D4800F0C7F9092110A80172012141725C
:10054000817212A800F088FB384800F017F938488B
:10055000019038480290002003900320049000206E
:100560000590802006904000079080000890202091
:10057000099000020A9000200B9001A92B4800F07E
:1005800081F901220221294800F072F9012127484E
:1005900000F0E6F826484038FFF748FF02212448DB
:1005A0004038FFF73AFF00200C90012108A80175A0
:1005B00000200E90109011900CA91D484038FFF7B4
:1005C0007BFF072240211A484038FFF702FF07222D
:1005D0000121490216484038FFF7FBFE072201219E
:1005E000490413484038FFF7F4FE012000F02CF8CE
:1005F0000F484038FFF72AFF01210D484038FFF728
:10060000F4FE00BF0C490A484038FFF73DFF0028C0
:10061000F8D0012106484038FFF7F3FE044840387F
:1006200000F00CF815B000BD0004004808000240BE
:1006300040240140A800002001000001816804223C
:100640001143816070470000002807D0074989687E
:10065000012292051143054A916006E00349896829
:10066000012292059143014A9160704700270140A1
:1006700070B5022000F0EEF8002866D0012000F0EE
:1006800069F832484169C088091830484161406CB6
:100690002E49898841182D484164416F0089091805
:1006A0002A484167008A09284AD12849496FFF2210
:1006B0004B32514308462649FFF7B2FD2349C88112
:1006C0000A465269FF234B335A431446D217120D80
:1006D000121912139923DB005A4310460A46D18996
:1006E000FFF79EFD6421484305460D21FFF798FD65
:1006F000164948810A46526CFF234B335A4314462D
:10070000D217120D121912139923DB005A43104607
:100710000A46D189FFF784FD0C49888189897D22A9
:10072000D20051430846A521FFF77AFD0749888189
:10073000002008820021054841614164416704E0CE
:100740000248008A401C0149088270BDA4000020B4
:10075000FF0F0000014948607047000000000240A0
:10076000002904D0026801231A43026003E00268F2
:10077000014B1A4002607047FEFF00000168334AD7
:10078000114001600021016041608160C160304919
:10079000884208D12E49083949680F2211432C4A52
:1007A000083A516051E02A491431884208D1284959
:1007B00008394968F0221143254A083A516044E05B
:1007C00023492831884209D12149083949680F2233
:1007D000120211431E4A083A516036E01C493C316E
:1007E000884209D11A49083949680F221203114376
:1007F000174A083A516028E015495031884209D11A
:100800001349083949680F2212041143104A083A63
:1008100051601AE00E496431884209D10C49083907
:1008200049680F2212051143094A083A51600CE049
:1008300007497831884208D10549083949680F22AB
:1008400012061143024A083A51607047FEFF000049
:100850000800024001460020044A12680A40002AAB
:1008600001D0012000E0002070470000000002409D
:10087000002A03D003680B43036002E003688B4344
:100880000360704710B5002202680D4B1A400C6AD5
:100890008B6823430C6923434C6923438C692343AE
:1008A000CC6923434C6A23438C6A23431A43026076
:1008B000CB6843600B6883604B68C36010BD000069
:1008C0000F80FFFFF0B50A4600210023002400BF7F
:1008D0003DE001258D402B4615681D402C469C426D
:1008E00034D11579012D02D01579022D16D18568E4
:1008F0004F000326BE40B543856055794E00B54094
:10090000866835438560858801268E40B54385809D
:10091000858896798E40B6B23543858005684F004C
:100920000326BE40B543056015794E00B540066804
:1009300035430560C5684F000326BE40B543C5601A
:10094000D5794E00B540C6683543C560491C1029AD
:10095000BFD3F0BDF0B5002300244D07EE0E1546C1
:10096000B5402B46CD10AE0005462035AD594E079B
:10097000F70E0F26BE40B543CE10B600074620370F
:10098000BD51CD10AE003D46AD591D432C46CD1096
:10099000AD003E467451F0BD02460020138A0B4064
:1009A000002B01D0012000E00020704710B500F0BE
:1009B00071FB10BD10B504201B4908811B491C4A5E
:1009C0001278885C00F0C2FC19480078012803D036
:1009D0001748007803280CD1154909784900154AB1
:1009E000515A154A515C80221143084600F0AEFC72
:1009F00008E00F49097849000E4A515A0E4A505CE6
:100A000000F0A4FC04200921C90688610848007888
:100A1000401C07490870062105480078FFF700FCD4
:100A2000C8B20349087010BD200000483B000020F8
:100A30005E000020480100203000002070B5044610
:100A400064212046FFF7ECFB0A49C8806421204658
:100A5000FFF7E6FB0D460A212846FFF7E1FB0549B3
:100A600008810A212046FFF7DBFB88B20149488153
:100A700070BD00004801002070B504466421204686
:100A8000FFF7CEFB0D49088008460088002801D1F9
:100A90000A20088064212046FFF7C2FB0D460A2188
:100AA0002846FFF7BDFB054948800A212046FFF78D
:100AB000B7FB88B20149888070BD00004801002062
:100AC000704700BFFEE71CB50121480400F0FEF8A6
:100AD0001020009001216846017100214171C1710F
:100AE00069460920C006FFF7EDFE1CBD4100034A20
:100AF000515A8200024B9A58118570479015000890
:100B0000100000204100034A515A8200024B9A58BB
:100B100091617047901500081000002010B500206A
:100B20004749087086E0464800780C21484345490B
:100B300040180089002878D0414A12785200424B70
:100B4000995A3F4A12789200404B9858FFF724FF79
:100B500001282ED13A4800780C21484339490858D9
:100B60003B490968884224D235480078FFF7BEFF28
:100B7000334800780C214843324940188088344972
:100B8000096841182E4800780C2250432D4A115014
:100B90002B4800780C214843114640180089401E1C
:100BA00081B2274800780C225043264A80180181E0
:100BB0003BE0234A12785200234B995A204A12787C
:100BC0009200224B9858FFF7E7FE00282DD11C48D1
:100BD00000780C2148431B4908581D490968884280
:100BE00023D217480078FFF78DFF154800780C21B5
:100BF000484314494018C0881549096841181048ED
:100C000000780C2250430F4A11500D4800780C21F7
:100C10004843114640180089401E81B208480078B8
:100C20000C225043074A8018018105480078401C77
:100C30000349087002480078012800DA73E710BD04
:100C400014000020740000209015000810000020FF
:100C50002C0000207047000000218278002A27D055
:100C6000184A03231B02D21803789B109B00D1580B
:100C700002789207D30EFF229A400B4693431946FF
:100C800042789207120E03789B07DB0E9A401143BD
:100C90000C4A03231B02D21803789B109B00D150EF
:100CA0000278D306DB0E01229A40064B1A6007E059
:100CB0000278D306DB0E01229A40024B80331A6081
:100CC0007047000000E100E070470000002905D0F7
:100CD000054A52690243044B5A6104E0024A5269D0
:100CE0008243014B5A61704700100240002905D031
:100CF000054A12690243044B1A6104E0024A126970
:100D00008243014B1A61704700100240002905D050
:100D1000054A92690243044B9A6104E0024A9269CF
:100D20008243014B9A61704700100240002905D0B0
:100D3000054AD2680243044BDA6004E0024AD268F2
:100D40008243014BDA607047001002401948006886
:100D500001210843174908600846406816490840C1
:100D60001449486008460068144908401149086061
:100D7000084600680121890488430E490860084636
:100D800040683F21090488430A4948600846C06A10
:100D900000090001C8620846006BFF2154318843F6
:100DA000044908630846406B40084000486300203F
:100DB00088607047001002400CB8FF08FFFFF6FE85
:100DC000FEB5044600250026002002900190009008
:100DD0000027704840680C2108400546002D06D0C9
:100DE000042D07D0082D08D00C2D2CD128E06A48FE
:100DF00020602BE06848206028E0664840680F21AA
:100E0000890408400646634840680321C903084036
:100E10000290B00C861C0298002803D15F48374628
:100E200047430BE05B48C06A0007000F401C01907D
:100E300059480199FFF7EAF970430746276005E032
:100E40005748206002E05448206000BF00BF51486E
:100E50004068F021084005462D095248405D009049
:100E600021680098C14061604A4840680721090232
:100E7000084005462D0A4B48405D00906168009887
:100E8000C140A1604348006BFF2101310840884206
:100E900002D04548E0600DE03E48406801218903EA
:100EA0000840884203D0A0684008E06002E0A068E3
:100EB0008008E0603748006B40210840402802D09D
:100EC0003A48206102E00120C00320613148006BF4
:100ED00010210840102802D02F48606101E02068EE
:100EE00060612C48006B8007800F002802D1A06849
:100EF000A06119E02748006B8007800F012802D10C
:100F00002068A06110E02348006B8007800F022852
:100F100002D18003A06107E01E48006B8007800FAC
:100F2000032801D11C48A0611A48006B0321090461
:100F30000840002802D1A068E06120E01548006B5D
:100F400003210904084001210904884202D12068D4
:100F5000E06114E00F48006B0321090408400121FF
:100F60004904884202D18010E06108E00948006B22
:100F7000032109040840884201D10748E06105487F
:100F8000006B80210840802802D00548206200E0E4
:100F90002762FEBD0010024000127A0000093D00E9
:100FA000006CDC0200000020809FD5001280000051
:100FB00010B502460021002300205111002902D162
:100FC0000C4C23680BE0012902D10A4C236A06E08D
:100FD000022902D1074C636A01E0064C636BD1061B
:100FE000C90E01248C401C40002C01D0012000E0DF
:100FF000002010BD00100240024840680C2108404B
:101000007047000000100240002806D00649096819
:1010100001221143044A116005E0034909684908A7
:101020004900014A1160704700100240002807D0B3
:1010300007490968012212061143054A116006E0BA
:1010400003490968012212069143014A1160704761
:1010500000100240074A52687B23DB039A43054B8A
:101060005A601A46526803460B431A43014B5A60B2
:10107000704700000010024001460020044A5068FA
:101080008008800002460A431046014A50607047BB
:101090000010024000B589B001214804FFF716FE98
:1010A000002205210920C006FFF754FC0022072179
:1010B0000920C006FFF74EFCA0200790022108A8D7
:1010C0000170002181700221C1700321417007A9C4
:1010D0000920C006FFF7F6FB04200790012108A8AD
:1010E000017000218170032141700221C17007A9A4
:1010F0000920C006FFF7E6FB1921684601760121A9
:101100004176817606A8FFF7A7FD01210803FFF7C6
:10111000FDFD134800F034F8002168468180072166
:101120000902018100214181818101214902C1819E
:1011300030210182002141828182FF210531C1805D
:1011400001A9074800F03AF801210903044800F01A
:1011500061F80121024800F005F809B000BD000067
:1011600000300140002904D0028840231A43028045
:1011700003E00288014B1A4002807047BFFF000065
:1011800010B504460B48844208D101218014FFF7B2
:10119000CDFD0021A014FFF7C9FD0AE006488442F6
:1011A00007D101210014FFF7A1FD00212014FFF752
:1011B0009DFD10BD003001400038004010B50022F8
:1011C0000288C1239B011A400B88CC892343CC8819
:1011D00023430C8923434C8923438C8923431A439B
:1011E00002808288084B1A408B881A4382800B8ABF
:1011F00003820288054B1A404B881A430280838B76
:10120000034C2340838310BDFFF00000FBFF000070
:10121000FFF700008288034B1A40828082880A43CD
:1012200082807047FFEF0000704700000CB500207F
:1012300001900090314800680121090408432F49BA
:10124000086000BF2D480068012149040840009053
:101250000198401C01900098002804D10521090341
:1012600001988842EED125480068012149040840D0
:10127000002802D00120009001E00020009000989A
:10128000012839D111201E4908601C4840681B49BB
:101290004860084640684860084640687F21C903A6
:1012A00088431649486008464068112109040843EC
:1012B00012494860084600680121090608430F49A1
:1012C000086000BF0D480068012149060840002859
:1012D000F8D00A48406880088000084948600846FD
:1012E0004068022108430549486000BF0348406840
:1012F0000C2108400828F9D10CBD00000010024064
:101300000020024010B5FFF721FD0120FFF77CFE11
:1013100000BF0120FFF74CFE0028FAD00521C904C8
:101320000020FFF797FE0120FFF780FE00BF192085
:10133000FFF73EFE0028FAD00220FFF79DFE00BF17
:10134000FFF75AFE0828FBD110BD0000014600BF80
:1013500008480089022210400028F9D0054801738E
:1013600000BF04480089C007C00F0028F9D0014819
:10137000007B70470030014010B5FFF71BFB00F009
:1013800047F803480068401C0149086010BD000090
:101390002C00002010B51B480068012108431949A2
:1013A00008600846406818490840164948600846E1
:1013B0000068164908401349086008460068012182
:1013C000890488430F490860084640683F210904A2
:1013D00088430C4948600846C06A00090001C86299
:1013E0000846006BFF2154318843064908630846CC
:1013F000406B40084000486300208860FFF716FFFC
:1014000010BD0000001002400CB8FF08FFFFF6FE00
:1014100004480068002804D002480068401E0149C2
:10142000086070471800002010B5FFF75BF8A42192
:101430000148FEF7E9FE10BDA400002010B50F48DA
:10144000006A0F490968884217D20D480068C83001
:101450000A490862803948896421FEF7E1FE84B2B6
:101460002046FFF709FB054980398889D221FEF71C
:10147000D7FE84B22046FFF7E1FA10BD2401002018
:101480002C00002010B5002819DB1A4A03231B0288
:10149000D21883089B00D2588307DC0EFF23A34099
:1014A0009A438B071B0E8407E40EA3401A43114B8B
:1014B000032424021B198408A4001A5118E00E4AC0
:1014C00003071B0F083B9B089B00D2588307DC0EC9
:1014D000FF23A3409A438B071B0E8407E40EA3400F
:1014E0001A43054B0407240F083CA408A4001A5112
:1014F00010BD000000E100E01CED00E072B67D21AF
:10150000C9001D480068FEF781FE0446601E1B49A5
:10151000884200D90CE0601E194948610321081F68
:10152000FFF7B0FF0020164988610720086100BF5F
:101530000021481EFFF7A6FFFFF7E4FE1148FFF762
:101540003FFC62B6FFF7BFFAFFF730FAFFF76CFF18
:1015500011E0FFF7B5FAFFF771FFFFF7DFFA0A486E
:1015600000680A490968884205D208480068FF30C7
:10157000F53005490860ECE760000020FFFFFF0040
:1015800000E000E0800000201C0000202C00002073
:1015900010000000B41500080000002074000000D6
:1015A000F800000828160008740000204407000016
:1015B00014010008000000000102030401020304FA
:1015C00006070809000000480000000000000000B5
:1015D000000000000000000000000000000000000B
:1015E000000000003F065B4F666D7D077F6F00FEC9
:1015F000FDFBF7EFDFC0F9A4B0999282F8809088E4
:1016000083C6A1868EC289F9F1C3A9C08C9892C104
:1016100091FE0000006CDC020000000000000000F1
:0816200001020304060708099A
:04000005080000B53A
:00000001FF
