:020000040800F2
:1000000080070020590100082D0700089505000809
:1000100000000000000000000000000000000000E0
:10002000000000000000000000000000250900089A
:100030000000000000000000A9070008490A0008AD
:1000400089010008000000008901000889010008FA
:1000500089010008AD040008890100088901000831
:1000600000000000950300088901000889010008CC
:1000700089010008890100088901000800000000CA
:10008000890100080000000000000000890100084C
:100090008901000889010008890100088901000818
:1000A0008901000889010008890100088901000808
:1000B0008901000800F002F800F03EF80CA030C8FA
:1000C000083824182D18A246671EAB4654465D46D4
:1000D000AC4201D100F030F87E460F3E0FCCB64660
:1000E0000126334200D0FB1AA246AB4633431847E1
:1000F000880A0000A80A0000103A02D378C878C124
:10010000FAD8520701D330C830C101D504680C6059
:10011000704700000023002400250026103A01D378
:1001200078C1FBD8520700D330C100D50B607047AF
:100130001FB51FBD10B510BD00F0F8F81146FFF750
:10014000F7FF00F0D7FC00F010F903B4FFF7F2FF5F
:1001500003BC00F017F900000F4880F308880F482F
:100160000168090E0E4A914205D10E480E49016000
:100170000E480F4901600F4880470F480047FEE7CF
:10018000FEE7FEE7FEE7FEE7FEE700000B480C494E
:100190000C4A0D4B7047000080070020040000004F
:1001A0001F00000018100240010000000000014084
:1001B00000000000610A0008B5000008800100206E
:1001C0008007002080030020800300200022030914
:1001D0008B422CD3030A8B4211D300239C464EE062
:1001E00003460B433CD4002243088B4231D303091E
:1001F0008B421CD3030A8B4201D394463FE0C309D0
:100200008B4201D3CB01C01A524183098B4201D3E7
:100210008B01C01A524143098B4201D34B01C01AD2
:10022000524103098B4201D30B01C01A5241C3084A
:100230008B4201D3CB00C01A524183088B4201D3B9
:100240008B00C01A524143088B4201D34B00C01AA5
:100250005241411A00D201465241104670475DE0BA
:10026000CA0F00D04942031000D34042534000223D
:100270009C4603098B422DD3030A8B4212D3FC22E6
:10028000890112BA030A8B420CD3890192118B4265
:1002900008D3890192118B4204D389013AD092117B
:1002A00000E08909C3098B4201D3CB01C01A524136
:1002B00083098B4201D38B01C01A524143098B42FF
:1002C00001D34B01C01A524103098B4201D30B01E8
:1002D000C01A5241C3088B4201D3CB00C01A52410D
:1002E00083088B4201D38B00C01A5241D9D24308F4
:1002F0008B4201D34B00C01A5241411A00D2014631
:10030000634652415B10104601D34042002B00D59A
:100310004942704763465B1000D3404201B500205C
:10032000C046C04602BD704770477047754600F032
:1003300025F8AE46050069465346C008C00085460C
:1003400018B020B5FFF722FF60BC00274908B64669
:100350000026C0C5C0C5C0C5C0C5C0C5C0C5C0C5D4
:10036000C0C5403D49008D46704710B50446C046A3
:10037000C0462046FFF7E9FE10BD00000048704768
:100380002001002001491820ABBEFEE72600020034
:100390007047000070B5022000F070F800285DD0B2
:1003A000012000F065F82E48C0682D4909884118E1
:1003B0002B48C160C06B2A49498841182848C1634D
:1003C000C06E2749898841182548C16600890928D7
:1003D0003FD12349C96EFF224B3251430846214980
:1003E000FFF7FEFE00B2204988841D4AD268FF2331
:1003F0004B335A431446D217120D12191213992374
:10040000DB005A4310460A462421515EFFF7E8FEFE
:10041000A621484305462421FFF7E2FE00B2124917
:1004200008840F49C96B114A501A2B21FFF7D8FED7
:1004300004460A21FFF7D4FE193000B20A49488465
:1004400000200749088100210548C160C163C166D9
:1004500004E003480089401C0149088170BD000088
:1004600044000020FF0F0000DC0000205645000083
:10047000014948607047000000000240014600202A
:10048000044A12680A40002A01D0012000E000203E
:1004900070470000000002400349086000BF0249A5
:1004A00009680029FBD170470800002010B5012021
:1004B00000F00CF8002802D0012000F001F810BD77
:1004C00001494861704700000004014001460020D6
:1004D000044A52690A40002A01D0012000E00020AD
:1004E0007047000000040140F0B50A4600210023D7
:1004F000002400BF3DE001258D402B4615681D40BE
:100500002C469C4234D11579012D02D01579022D4B
:1005100016D185684F000326BE40B54385605579E6
:100520004E00B540866835438560858801268E403B
:10053000B5438580858896798E40B6B235438580EF
:1005400005684F000326BE40B543056015794E008F
:10055000B540066835430560C5684F000326BE40B8
:10056000B543C560D5794E00B540C6683543C56012
:10057000491C1029BFD3F0BD02460020138A0B404E
:10058000002B01D0012000E000207047018570475A
:100590008161704700BFFEE71CB50121880400F0AF
:1005A00005F9012000030090012168460171002136
:1005B0004171C17169460248FFF796FF1CBD0000FA
:1005C000000400484100034A515A8200024B9A58E5
:1005D00011857047740B0008000000204100034A99
:1005E000515A8200024B9A5891617047740B00086F
:1005F0000000002010B500204749087086E04648FA
:1006000000780C214843454940180089002878D0DB
:10061000414A12785200424B995A3F4A127892004E
:10062000404B9858FFF7A8FF01282ED13A48007890
:100630000C214843394908583B490968884224D26B
:1006400035480078FFF7BEFF334800780C21484357
:100650003249401880883449096841182E4800788A
:100660000C2250432D4A11502B4800780C2148434E
:10067000114640180089401E81B2274800780C229C
:100680005043264A801801813BE0234A12785200E9
:10069000234B995A204A12789200224B9858FFF720
:1006A0006BFF00282DD11C4800780C2148431B49C2
:1006B00008581D490968884223D217480078FFF777
:1006C0008DFF154800780C21484314494018C08814
:1006D000154909684118104800780C2250430F4A08
:1006E00011500D4800780C214843114640180089EC
:1006F000401E81B2084800780C225043074A8018F7
:10070000018105480078401C0349087002480078C0
:10071000012800DA73E710BD040000203800002033
:10072000740B00080000002020000020704700002B
:1007300010B5002819DA1A4A03071B0F083B9B085B
:100740009B00D2588307DC0EFF23A3409A438B07FC
:100750001B0E8407E40EA3401A43114B0407240F19
:10076000083CA408A4001A5118E00E4A03231B02F7
:10077000D21883089B00D2588307DC0EFF23A340C6
:100780009A438B071B0E8407E40EA3401A43054BC4
:10079000032424021B198408A4001A5110BD000070
:1007A0001CED00E000E100E070470000002905D0EA
:1007B000054A52690243044B5A6104E0024A5269F5
:1007C0008243014B5A61704700100240194800688B
:1007D0000121084317490860084640681649084047
:1007E00014494860084600681449084011490860E7
:1007F000084600680121890488430E4908600846BC
:1008000040683F21090488430A4948600846C06A95
:1008100000090001C8620846006BFF21543188437B
:10082000044908630846406B4008400048630020C4
:1008300088607047001002400CB8FF08FFFFF6FE0A
:1008400010B502460021002300205111002902D1D9
:100850000C4C23680BE0012902D10A4C236A06E004
:10086000022902D1074C636A01E0064C636BD10692
:10087000C90E01248C401C40002C01D0012000E056
:10088000002010BD00100240024840680C210840C2
:100890007047000000100240002806D00649096891
:1008A00001221143044A116005E00349096849081F
:1008B0004900014A1160704700100240002807D02B
:1008C00007490968012212061143054A116006E032
:1008D00003490968012212069143014A11607047D9
:1008E00000100240074A52687B23DB039A43054B02
:1008F0005A601A46526803460B431A43014B5A602A
:10090000704700000010024001460020044A506871
:100910008008800002460A431046014A5060704732
:1009200000100240704700000CB5002001900090BC
:10093000314800680121090408432F49086000BFBD
:100940002D48006801214904084000900198401C8E
:1009500001900098002804D10521090301988842DC
:10096000EED125480068012149040840002802D042
:100970000120009001E0002000900098012839D16A
:1009800011201E4908601C4840681B494860084601
:1009900040684860084640687F21C903884316497B
:1009A000486008464068112109040843124948601C
:1009B000084600680121090608430F49086000BF86
:1009C0000D4800680121490608400028F8D00A486F
:1009D0004068800880000849486008464068022155
:1009E00008430549486000BF034840680C2108409F
:1009F0000828F9D10CBD0000001002400020024080
:100A000010B5FFF7E3FE0120FFF746FF00BF01200E
:100A1000FFF716FF0028FAD00521C9040020FFF7D0
:100A200061FF0120FFF74AFF00BF1920FFF708FF11
:100A30000028FAD00220FFF767FF00BFFFF724FF6E
:100A40000828FBD110BD000010B500F047F803489E
:100A50000068401C0149086010BD00002000002013
:100A600010B51B4800680121084319490860084671
:100A70004068184908401649486008460068164909
:100A8000084013490860084600680121890488432A
:100A90000F490860084640683F21090488430C4913
:100AA00048600846C06A00090001C8620846006B39
:100AB000FF2154318843064908630846406B4008CB
:100AC0004000486300208860FFF72EFF10BD000043
:100AD000001002400CB8FF08FFFFF6FE0448006853
:100AE000002804D002480068401E01490860704791
:100AF0000800002072B67D21C9001A480068FFF77F
:100B000065FB0446601E1849884200D90CE0601E4F
:100B1000164948610321081FFFF70AFE0020134908
:100B200088610720086100BF0021481EFFF700FE12
:100B3000FFF766FFFFF730FD62B612E001210903FF
:100B40000B48FFF725FD0120FFF7A6FC0121090353
:100B50000748FFF71BFDFF20F530FFF79DFCFFF76F
:100B600049FDEBE724000020FFFFFF0000E000E06C
:100B70000004004800100000980B0008000000204E
:100B800038000000F8000008D00B000838000020F2
:100B9000480700001401000800040048000000009D
:100BA00000000000000055556666777700000000E1
:100BB000000000000000000000000000006CDC02EB
:100BC00000000000000000000102030406070809FD
:04000005080000B53A
:00000001FF
