:020000040800F2
:10000000580E002069010008E3310008B9270008F4
:1000100000000000000000000000000000000000E0
:10002000000000000000000000000000D5420008B1
:100030000000000000000000113800086D440008B6
:1000400099010008000000009901000899010008CA
:10005000990100087124000899010008892400080A
:1000600000000000E91A0008990100089901000841
:10007000990100089901000899010008000000009A
:10008000990100080000000000000000990100082C
:1000900099010008990100089901000899010008D8
:1000A00099010008990100089901000899010008C8
:1000B0009901000800F002F800F046F80CA030C8E2
:1000C000083824182D18A246671EAB4654465D46D4
:1000D000AC4201D100F038F87E460F3E0FCCB64658
:1000E0000126334200D0FB1AA246AB4633431847E1
:1000F0002457000044570000103A02D378C878C152
:10010000FAD8520701D330C830C101D504680C6059
:10011000704700000023002400250026103A01D378
:1001200078C1FBD8520700D330C100D50B607047AF
:1001300010B5642902D100F0D3F810BD002010BD25
:100140001FB51FBD10B510BD01F0FBF91146FFF73B
:10015000F7FF04F0B3FD01F013FA03B4FFF7F2FF69
:1001600003BC01F019FA00000F4880F308880F481B
:100170000168090E0E4A914205D10E480E490160F0
:100180000E480F4901600F4880470F480047FEE7BF
:10019000FEE7FEE7FEE7FEE7FEE700000B480C493E
:1001A0000C4A0D4B70470000580E00200400000060
:1001B0001F00000018100240010000000000014074
:1001C00000000000E9440008B500000858080020BD
:1001D000580E0020580A0020580A002070B500254B
:1001E0002C46AD1A9C4112DA00252C462D1A8C4162
:1001F00002DA01F09BF870BD002440428C41214698
:1002000001F094F8002440428C41214619E0002579
:100210002C462D1A8C410ADA002452429C41234676
:1002200001F084F8002440428C41214670BD002436
:1002300052429C414042234600248C41214601F019
:1002400075F8002452429C41234670BD0FB41CB582
:10025000074B06AA7B4469460090059801F045F9D2
:100260000020694601F054F91CBC08BC04B01847D2
:10027000B9120000F8B50E46044600202062204660
:10028000E1688847002829D0252802D06268A16843
:1002900020E0E16820460027884705001ED0284658
:1002A0004138192802D80127FF022035324620465E
:1002B00027602946FFF73CFF002808D0012804D01A
:1002C000F61DF608F6000836D9E7361DD7E762684E
:1002D0002846A1689047206A401CCFE7206AF8BDF5
:1002E000F7B5002575291068009914A611D0C046ED
:1002F000C046002802DA404211A608E000990968C9
:100300008A0701D50FA602E0490704D50EA60125EC
:1003100001E0C046C046009F0024243704E001F0FD
:10032000FCF830313955641C0028F8D12B46324690
:100330002146009801F07BF8FEBD0000000000009F
:100340002D0000002B00000020000000D2B210B5EC
:1003500013029A1813049A1800F00EF810BD01E069
:1003600004C0091F0429FBD28B0701D50280801C21
:10037000C90700D00270704700290BD0C30702D014
:100380000270401C491E022904D3830702D5028053
:10039000801C891EE3E70022EEE70022DFE700224F
:1003A00003098B422CD3030A8B4211D300239C46B2
:1003B0004EE003460B433CD4002243088B4231D32A
:1003C00003098B421CD3030A8B4201D394463FE0BE
:1003D000C3098B4201D3CB01C01A524183098B421E
:1003E00001D38B01C01A524143098B4201D34B0107
:1003F000C01A524103098B4201D30B01C01A52416A
:10040000C3088B4201D3CB00C01A524183088B42F0
:1004100001D38B00C01A524143088B4201D34B00D9
:10042000C01A5241411A00D201465241104670474B
:100430005DE0CA0F00D04942031000D34042534050
:1004400000229C4603098B422DD3030A8B4212D310
:10045000FC22890112BA030A8B420CD38901921142
:100460008B4208D3890192118B4204D389013AD07F
:10047000921100E08909C3098B4201D3CB01C01A54
:10048000524183098B4201D38B01C01A5241430967
:100490008B4201D34B01C01A524103098B4201D355
:1004A0000B01C01A5241C3088B4201D3CB00C01AC2
:1004B000524183088B4201D38B00C01A5241D9D2DA
:1004C00043088B4201D34B00C01A5241411A00D25B
:1004D0000146634652415B10104601D34042002B57
:1004E00000D54942704763465B1000D3404201B5D6
:1004F0000020C046C04602BD7047704770470000EC
:100500000246C80FC00781434B0030B54B405B002B
:100510009B0D20D01923DB06C91801231B05994226
:1005200020DB0324A40704251346AB400BD3002B88
:1005300004D1EB0613409B00E34204D4012464077A
:10054000002312195941FF231B0599420BD2C90000
:100550000143500F09E0CB0204D5014308030243D5
:1005600005D0054830BDFF21C905084330BD084608
:1005700007210905884330BD0000C07FF0B50C4657
:10058000871A9C410D46861A9D4103D2C01BA1418A
:10059000D21963410D0D1F0DC94EEC1BAE435CD04B
:1005A0007F057F0D0026002F51D02D05AC46A943B5
:1005B000DD020123ED0A1B051D4320231B1B24D450
:1005C0001746E740381871412F46E740CC199D4047
:1005D0002818314661410C0D27D161449A4013D54A
:1005E0000023401C594152000ED140084000012216
:1005F0004B005205D34207D305204007C14201D525
:10060000B04900E0B0493046F0BD6B00002A00D090
:1006100001229A181F23203C1B1B01D5002302E056
:10062000E540281871410C0DD7D001242405091983
:10063000C407CD0740084908E40F28436144002C53
:10064000D5D00024401C61419A40D0D1CDE76A0545
:10065000520DD9D1C90FC907D5E79C4D4E000028CE
:1006600001D0012400E0002434195F00002A01D0E9
:10067000012600E00026BE19954FAC420CD8AE42D0
:100680000AD8B44206D001256D05EC42BCD0104614
:100690001946F0BD9942FCD000203946F0BDF0B5B6
:1006A0001FB40C460F46811A9F412546861A9D416C
:1006B00006D20125ED076F40401ABC4152187B411C
:1006C000210D1E0D8D1BAC467D4D8D437ED07505D5
:1006D0006D0D7CD00D05AE46AC431B031B0B794D55
:1006E00052429D41202366469B1B14D31746F74078
:1006F000381800260090744160462F460741E419DF
:1007000000989D402818664116D4714671189A4089
:1007100025D5012320E093182A466A415200002B78
:1007200000D0521C1E23203E9B1B002B61DD354157
:10073000EE1728186641E8D5001876415B1C9A40F0
:1007400000D3401C4B05F3181524E34010D3002BB5
:1007500052D071467118D30FC01802D3491C05B08E
:10076000F0BD0123DB079A42F9D140084000F6E7CB
:1007700001225205B21801D1002853D00123CC0A1E
:10078000DB029943891E002A08D1020C03D0020C17
:100790000004103902E00246002020390023550BE6
:1007A00005D112020823550B01D152010D23550C1E
:1007B00001D112011B1DD50C01D192009B1C150DFE
:1007C00001D152005B1C2025EE1A01E02CE022E052
:1007D0000546F54015439840CA1AE1076918130504
:1007E000C918002ABBDA032040070818C10FC9073F
:1007F0000FE071466118B2E7F10740080843711035
:1008000071444A000CD001235B059A42A7D2C90F5C
:10081000C9070020A3E74905490D26D1002001E0C2
:100820000028F4D100219AE7284D6600002801D065
:10083000012100E0002171185F00002A01D001268B
:1008400000E00026BE19224FA94210D8AE420ED8B1
:10085000B14208D001256D05E94206D01946A8022B
:10086000414010467BE79C4201D0214677E70020BB
:10087000394674E710B50C465C4005D50124E40701
:100880006340FFF70CFF10BDFFF778FE10BD30B4DA
:100890000C465C4004D50124E407634030BC6DE69F
:1008A00030BCFCE670B50124E40761400D465D40B4
:1008B00002D4FFF763FE70BD6340FFF7F0FE70BD2A
:1008C000FF0700000000F0FF0000F07F0000E0FFE5
:1008D0000000F87FF0B5F94D0C091E092C402E40A0
:1008E0002F468BB0A7437DD0B543FCD0002E7AD0E5
:1008F000002CFCD00D465D40ED0F2543AC1BFF25C1
:10090000AD0464190894C502440DC9022143500D79
:10091000DC0204430120C00701430443D2020191D9
:10092000200C110C00958C46010423468B430A9140
:1009300061460904E24D8A430991010A7D4449193F
:100940008039097805464D4301266D18F605751B5B
:100950006943C90C640B891C4C436418B5012C1BFA
:10096000250C2E04B4434C434D43210C69188909CE
:100970000591009DE90701D00121C90704912C468A
:1009800001996708CD072F434C08059DE10B4D43A6
:100990002D0C29466646754302950D4645432E4665
:1009A000029D7D1BB44100950D465D4301942C0CC6
:1009B0002F040D465543AE462D0C3D43029503943E
:1009C0007546049C2D04641B049406D2029C039D6E
:1009D000641C002675410395029401AC70CC009F05
:1009E0007D1B01E03EE162E1B441090400950791FD
:1009F00001940599A4086143090C0C464443650B16
:100A0000E7040C4666467443A646640B3C430395D4
:100A100002947446049DE4042C1B049406D2029CA8
:100A2000039D641C002675410395029401AC70CCB3
:100A3000009F7D1BB44101940C465C430095650FFB
:100A4000E7000C465443A646640F3C4303950294CA
:100A50007446049DE4002C1B049406D2029C039D62
:100A6000641C002675410395029401AC70CC009F74
:100A70007D1BB441AE09AF06049DC900AD092F43EB
:100A8000049DA406AD060495079D3443691807919B
:100A9000059DE10B4D432D0C294666467543029595
:100AA0000D4645432E46029D7D1BB44100950D46E3
:100AB0005D4301942C0C2F040D465543AE462D0C7E
:100AC0003D43029503947546049C2D04641B0494D5
:100AD00006D2029C039D641C002675410395029476
:100AE00001AC70CC009F7D1BB44101948C05069431
:100AF000079C890A611800950791019C0599A40833
:100B00006143090C0D464543680BEF040D466446EE
:100B100065436C0B3C43049FED047D1BAC4602D245
:100B20000025641C6841009E019D371B85410846D5
:100B3000584301950C46460FC5005443600F2843A7
:100B40006546E4002C1B02D20025401C6E41019D2D
:100B50003F1AB5412846BD09800628438446A009AE
:100B6000BF064E020699A40676180743079D00208B
:100B700068410A99079019430020099B009060463C
:100B8000FF1913434041E20F64003A43A446044670
:100B9000D71A8C41A04203D90120009020463A4642
:100BA000C70F941840416246D20F22436446640046
:100BB0000494009CBE466400D71AA44604460297DB
:100BC0008C417746002F01D1A04204D96046401CD9
:100BD0008446029A2046C40FA64694184041049ABF
:100BE0000546D20F224364466400D31A8D417146F4
:100BF000002901D1A84202D928461A46641C104394
:100C00000122002800D0164361020020079B8919A9
:100C100004465C410223002C02DB49181346644160
:100C2000089DCE0A2D145D194B056705E10A2C05B8
:100C30000D1908993E43C9076940002B08D093401D
:100C400006D30022761C5141002B01D17608760094
:100C50001C4A002D43DB154241D0AA433FD0304609
:100C60000BB0F0BD06180D464D41174C7642AC4115
:100C70001AD395181C465C41134A6D42A24113D306
:100C8000012252054C00D4420AD15C00D4420BD060
:100C90004B4002D592021143E2E749004908DFE7E1
:100CA0005940C90FC90718E000200849D8E705488E
:100CB00001420DD10342F7D0F2E700000000FF0728
:100CC000124E00000000F07F0000E0FF0000F87FFF
:100CD000114859400143C01241400020C0E70123A0
:100CE000089A9B069A4205DC032252078918C90F0D
:100CF000C907B5E7052252078918074A1143D212DE
:100D00005140ADE770B515461C4602460B462846D5
:100D10002146FFF7DFFD70BDFFFFFF7F30B50346C3
:100D2000CA02400D1043164D164C0A1502D020433E
:100D3000002A06DBAA1A002A12DDD040FF2A0BDCAB
:100D400030BD5205520D01D140004008AA1A07D407
:100D5000D0404042FF2A01DD002030BD0028FCDDEC
:100D60004A00002B01D0012000E0002010180122D1
:100D70005205D042F0D8C817C043604030BD0000D3
:100D80001E040000000000801F22030C02D10F226D
:100D9000000402D0030E03D004E000200146704797
:100DA0000002083A030F01D10001121F830F01D185
:100DB0008000921E002801DB4000521E12055118CF
:100DC0004205C012411810467047C10FC90700D034
:100DD0004042012292071143D6E701218907D3E758
:100DE000F0B58B4C0F09254689B0BD437BD01D095A
:100DF0002646AE43FAD00E465E402740F60F3E43ED
:100E0000254071D024012142FBD0FF24AD19A40458
:100E10002D1B039501252D05DB02DB0AC9022B439F
:100E2000C90A29431E010901040F130F05012143BB
:100E30001701880B820391432D098C46A90B1E4391
:100E40008A039543B30B9A0396433F09BA0B940365
:100E5000A74302962E467E430497B6464E19D719ED
:100E60000C460196544305977E43371B7646BF1BBD
:100E70003601B646BE0B361900967646BC043719C5
:100E8000009C01D3641C00946400002F01D0012653
:100E90003443029E049F754366467E430496760063
:100EA00034196E0034190094029C019E1C1966438B
:100EB000751BAE46069465464519059C05956C4321
:100EC000594375460891691A0191049E01465143A0
:100ED000A41B0491611A009C0791E10605D06109E9
:100EE0000122114302E072E06EE06109089D0027D3
:100EF0002C0A2D066918049D7C412A0A2D066918C2
:100F0000019D6241AC0DAD026D185441079A910DDF
:100F1000920255196141029A644658435443069B14
:100F2000059A5A43121A131B9A0E9B015B187A41B9
:100F3000010B0005C3185141220A200644195A41E9
:100F40009A4200D2491C01204002814203D315235A
:100F50000226F64302E014230326F6432020C51A96
:100F6000A9401746AF40DA400A4320460399D840CB
:100F70000914731819055118039A3843D2075140C0
:100F8000AC4009D00122944006D30022401C5141BC
:100F9000002C01D1400840001E4A934212D3012286
:100FA00003989206904207DB0520400709181A486B
:100FB0000143C012414004E0032040070818C10F5C
:100FC000C907002009B0F0BD0020F107FAE70518B5
:100FD0000C464C4111486D42A04115D394181A4655
:100FE0005A410E48644290410ED301204A00400508
:100FF000824209D35A00824206D35940C90F084A97
:10100000C90700201143DDE700200649DAE70000A8
:101010000000FF07FE070000FFFFFF7F0000E0FF6A
:101020000000F07F0000F87F0121C905012341186D
:1010300042001B06D3185B0E0AD0C1100722D2064D
:10104000891840075242D14201D552008918704791
:10105000090208D50146002A03D0C10FC9070020A4
:10106000704710467047420202D000200249704784
:10107000072109050143F4E70000F87FF0B5FF25DB
:101080002D04C609C209FF2704462E400137CB09AB
:101090003E4348402A402B400746002A6BD0002B95
:1010A00069D0AA4267D0AB4265D0002800DA324648
:1010B0000125ED0529432C4309022002090AD21A11
:1010C0004B0C7F24E31A434C000A7C44E35C7D24F0
:1010D0002404121914145B00A218884201D3521C74
:1010E00000E0400049420C465C4324115C43DB01B4
:1010F0006415E318040A5C43C502200D0C46444302
:101100006419250A5D432303EC0C0D466543000377
:101110000019EB184C42A34201D35B18401CD405C4
:101120002018002B07D05B00C91804D3401C0029ED
:1011300001D1400840003F2189048A4209D3002A96
:1011400008DC1106090F04D0032149074018C00F1D
:10115000C007F0BD01224100120689187F22520605
:101160009142F6D205214907C84201D59010F0BD41
:10117000FF20C005F0BD002F00DA32461648AA4213
:1011800007D2AB4205D21902090E17D0F80FC007DB
:10119000F0BDFF2563002D06AB42F9D84900A942F6
:1011A000F6D8AB4201D1A942F2D0A94201D1002127
:1011B00001E061004908D0050843F0BD1102090EA5
:1011C000FBD0FF200243D005F0BD0A460146104681
:1011D00054E70000044700000000C07F10B501463E
:1011E0009E240002CA15A307002A02D01843002A31
:1011F00004DBA21A002A0CDDD04010BD1206120E2C
:1012000001D140004008A21A03D4D0404042002837
:10121000F3DDFF2248001206904201D9002010BDE4
:10122000C817C043584010BD70B5BE230202C11597
:1012300020259C07002902D0224300290EDB5B1ADF
:10124000002B25DD1146D9401C46203C02D4104617
:10125000E04070BDEB1A1046984070BD0906090EBB
:1012600001D152005208591A12D41346CB400E46EF
:10127000203E01D4F24001E0691A8A400021524226
:10128000994100252B46AD1A8B4101DB104670BDFC
:10129000FF2241001206914202D90020014670BD92
:1012A000C017C043C117614070BD10B503460800A8
:1012B00001D0202001E0190002D00C0C02D003E084
:1012C000084610BD090410380C0E01D10902083877
:1012D0000C0F01D10901001F8C0F01D18900801E64
:1012E000002901DB4900401E1C46C4402143C405BF
:1012F000A2182024241A080A801819229140E0D349
:10130000A3400B43401C002BDBD14008400010BD24
:10131000CA0FD20703D00B460021404299419D23BA
:10132000DB051A43C1E79D22D205BEE7FEB505469F
:1013300010460C46184373D0AE468C460020AD1ABA
:1013400001469C4167D36646002701243D46B61AF4
:101350009D4102D313463A462124654676462F0422
:10136000360C3E432D0CB61A9D4104D3150C1B04BC
:101370002B4312041034654676462F06360A3E4348
:101380002D0AB61A9D4104D3150E1B022B431202DF
:101390000834654676462F0736093E432D09B61AAE
:1013A0009D4104D3150F1B012B431201241D6546DB
:1013B0007646AF07B6083E43AD08B61A9D4104D342
:1013C000950F9B002B439200A41C65467646EF07C1
:1013D00076083E436D08B61A9D411AD392185B41B8
:1013E000641C16E00018764665464941B71A9D41CF
:1013F0000191009009D36046B11A98418E46844607
:10140000009801990025401C6941DD0752082A43D4
:101410005B08641EE6D57246634603B0F0BDFFE785
:1014200000200146C046C0462A462346F5E7FFB5E0
:1014300004460D4681B0243000902168880604D50A
:101440001022E0699143216000E00120A84201DD03
:10145000471B00E000270498A1697A191018081AA0
:10146000A0612078C00602D42046C046C0460026AF
:1014700008E003986268A168805D9047206A401C7C
:10148000761C206204988642F3DB2078C0060AD5D9
:101490002046C046C04606E06268A16830209047FA
:1014A000206A401C206238467F1E0028F4DC07E0DA
:1014B00000986268A168405D9047206A401C2062E5
:1014C00028466D1E0028F3DC2046C046C046207822
:1014D000000602D5022005B0F0BD0120FBE70000A8
:1014E00001694A1C02610878704700B58FB002910B
:1014F0000021059105490193794403911146049017
:101500006846FEF7B7FE0FB000BD0000E5FFFFFF25
:101510000A681070521C0A60704701468008081A59
:1015200002091018020A1018020C1018C0088200D4
:1015300012185200891A01E0401C0A390A29FBD20C
:101540007047754600F024F8AE46050069465346DC
:10155000C008C000854618B020B5FEF71FFE60BC6D
:1015600000274908B6460026C0C5C0C5C0C5C0C5CD
:10157000C0C5C0C5C0C5C0C5403D49008D46704707
:1015800010B50446C046C0462046FEF7E6FD10BD35
:1015900000487047F407002001491820ABBEFEE761
:1015A00026000200704700000120014908767047BC
:1015B000F8010020F0B505460E460120C0030E4993
:1015C00008816907890E40221143084602F064FE33
:1015D00002F046FE0446012705E0240202F040FE28
:1015E0000443781CC7B2B742F7DB0120C0030921CE
:1015F000C90688612046F0BD2000004810B502F001
:10160000FFFDFF21C1310948FEF7C7FE0120C003DD
:101610000921C9068861082005498861FFF7C4FFD0
:1016200000F06EF80A200349488110BDF80100203F
:1016300000040048DC01002010B52A48007800288A
:1016400002D0012848D10CE00120C00326490881BE
:1016500026480068C830264988630120214908705F
:101660003EE01021234801F06BF8002828D1032127
:101670000846FFF79FFF0121C905401A1949486034
:10168000084640684860486800F010FA154948600C
:101690001948428908464168183000F0B1F91149EB
:1016A00048601648007802218843801C134908705E
:1016B00000200C4908700120C0030921C906886177
:1016C0000B48806B09490968884204D207480068C2
:1016D000C8300749886303E000200249087000BF52
:1016E00000BF10BDF801002020000048900000203D
:1016F0007803002000040048DC0100209400002052
:1017000000B50120C0030A490881FF2002F0C4FD92
:10171000FF2002F0C1FDFF2002F0BEFDFF2002F01D
:10172000BBFD0120C0030921C906886100BD00007E
:101730002000004810B50B460021846A1C438462D7
:1017400000BF0C4614432146416110BD002904D05E
:10175000826801231A43826003E0826802231A43ED
:1017600082607047002904D0C26801231A43C26016
:1017700003E0C26852085200C2607047C268022388
:101780009A43C260C2680A43C260704710B50446FB
:101790000548844207D10121401502F0B1F800212B
:1017A000601502F0ADF810BD0024014030B50146CF
:1017B0000020002200238C680125ED072C438C605B
:1017C00000BF8C68E30FDB07521C0F242403A242E6
:1017D00001D0002BF5D18C68E40FE407002C01D177
:1017E000086C00E0002030BD30B502460020002328
:1017F000012424060C40002C05D0946801252D06F8
:10180000AC43234600E013681C460C40002C01D07A
:10181000012000E0002030BD10B50022C268084B56
:101820001A400C7964030B6823438C682343CC680B
:1018300023430C6923434C6923431A43C26010BD00
:1018400003D2FFFF00B595B00121480402F028F84B
:101850000121084602F024F80121480202F040F874
:1018600002201390032110A801740021C17413A950
:101870000920C00600F0FAFE42480068FF2101314D
:10188000884340490860092110A801720121417272
:10189000817212A801F0A6FC3B4800F091F93B4888
:1018A00007903B4808900020099003200A900020F0
:1018B0000B9080200C9040000D9080000E90202016
:1018C0000F90000210900020119007A92E4800F000
:1018D000FBF9012202212C4800F0ECF901212A48F1
:1018E00000F060F929484038FFF750FF01A800F0E8
:1018F00056F80020019001216846017200200390F3
:101900000590069001A921484038FFF785FF07227E
:1019100002211E484038FFF70DFF0522012109046E
:101920001A484038FFF706FF012000F041F8052271
:101930000121490415484038FFF7FCFE012000F062
:101940004BF812484038FFF731FF01210F4840386B
:10195000FFF7FCFE00BF01210C484038FFF744FFB1
:101960000028F8D0022109484038FFF707FF01217D
:1019700006484038FFF7F6FE0448403800F00AF801
:1019800015B000BD000001400800024040240140A5
:1019900014010020816804221143816070470021F6
:1019A000016001718160C1600161416170470000A7
:1019B000002807D0074989680122D2051143054A4A
:1019C000916006E0034989680122D2059143014AEA
:1019D0009160704700270140002807D007498968B7
:1019E000012292051143054A916006E00349896886
:1019F000012292059143014A9160704700270140FE
:101A0000FEB504460D4616462648007E012818D12C
:101A10000022A260E2600021618000200CE08100D1
:101A2000224610325550EA17A368E1685B1951410C
:101A3000A360E160411CC8B21B4949898142EEDCC8
:101A400000BF012E2ADD6088800022461032105827
:101A5000C217A368E168181A9141E160A06060882C
:101A60008100204610304550E917A268E0685219FD
:101A70004841A260E0606088401C60806188701E00
:101A8000814201DD00206080E168A06832460023C9
:101A900001910090FEF7A2FB074600E02F46384672
:101AA000FEBD0000F8010020DC010020F8B504466E
:101AB0000B48006860430646094800687D21C9005C
:101AC000081A0849096848430746F5197D21C900E5
:101AD0002846FEF76EFC0546024805602846F8BD1C
:101AE000A4000020A800002070B5022000F0D4F867
:101AF00000284AD0012000F04FF82448006923490B
:101B00000988411821480161006C20494988411821
:101B10001E480164006F1D49898841181B480167F0
:101B2000808909282CD11949086F0A21FEF741FC48
:101B300000B21749088415490969FF224B32514305
:101B400008461449FEF735FC1049498948430546C3
:101B50000F482021415E2846FEF72BFCA621484372
:101B600004462421FEF725FC00B2094988830020A1
:101B7000064988810021054801610164016704E08C
:101B800002488089401C0149888170BD14010020F1
:101B9000B0010020FF0F00000149486070470000BD
:101BA00000000240002904D0026801231A430260A9
:101BB00003E00268014B1A4002607047FEFF00001C
:101BC0000168334A11400160002101604160816079
:101BD000C1603049884208D12E49083949680F222E
:101BE00011432C4A083A516051E02A491431884285
:101BF00008D1284908394968F0221143254A083A92
:101C0000516044E023492831884209D121490839EB
:101C100049680F22120211431E4A083A516036E009
:101C20001C493C31884209D11A49083949680F22B8
:101C300012031143174A083A516028E01549503100
:101C4000884209D11349083949680F221204114307
:101C5000104A083A51601AE00E496431884209D1AD
:101C60000C49083949680F2212051143094A083AFC
:101C700051600CE007497831884208D1054908399C
:101C800049680F2212061143024A083A5160704710
:101C9000FEFF00000800024001460020044A1268CE
:101CA0000A40002A01D0012000E000207047000017
:101CB00000000240002A03D003680B43036002E0E7
:101CC00003688B430360704710B5002202680D4B18
:101CD0001A400C6A8B6823430C6923434C692343E5
:101CE0008C692343CC6923434C6A23438C6A234386
:101CF0001A430260CB6843600B6883604B68C36023
:101D000010BD00000F80FFFF0349086000BF0249BB
:101D100009680029FBD170471800002010B500F0B9
:101D2000CDF81C213A48FEF738FB0021112000F0C5
:101D3000A9FA012804D136490870112000F0D8FA18
:101D40000021122000F09EFA012805D131483049C7
:101D50004860122000F0CCFA0021132000F092FA23
:101D6000012805D105202A490881132000F0C0FA76
:101D70000021142000F086FA012805D10A20244908
:101D80004881142000F0B4FA0021152000F07AFAFE
:101D9000012805D100201E49C860152000F0A8FACE
:101DA0000021162000F06EFA012805D10020184904
:101DB0000874162000F09CFA0021172000F062FA47
:101DC000012805D1144812494861172000F090FA03
:101DD0000021182000F056FA012805D150200C49A6
:101DE0000883182000F084FA0021192000F04AFA34
:101DF000012805D11E2006494883192000F078FAF1
:101E000000F0D6F90249087802F0CEF810BD0000C3
:101E1000DC010020983A00000AD7233C0346062143
:101E200006221448018814480288002B15D0012B83
:101E30001DD1002A06D11148814201D100207047EE
:101E40000120FCE7002906D10C48824201D1012083
:101E5000F5E70020F3E7AB20F1E7002901D10020EE
:101E6000EDE7002A01D10120E9E7AB20E7E70020F8
:101E7000E5E700000070000800740008EEEE0000C6
:101E800010B504240B4800F065FB0446042C01D077
:101E9000204610BD0021074800F0A0FB0446042C9A
:101EA00001D02046F5E7044800F054FB04462046E4
:101EB000EFE700000070000800740008FEB506207F
:101EC000029006260025002700200190401E009069
:101ED000744800880290744806880298002874D0DC
:101EE0007249401800282AD07149401800286DD145
:101EF000002E07D16B4800F02DFB0446042C1DD0AA
:101F00002046FEBD69484042864210D1654800F037
:101F100021FB0446042C01D02046F2E70021624850
:101F200000F05CFB0446042C08D02046E9E7FFF7EC
:101F3000A7FF0446042C01D02046E2E7AEE0002EC5
:101F400038D1002523E05748C0886900594A515AC2
:101F5000884201D128B200900098854215D06900CE
:101F6000544A505A544900F08DF9019001980128C3
:101F70000BD069004F4A505A4F49098800F02EFA99
:101F80000746042F01D03846BBE7681C85B2122DE6
:101F9000D9DB0021434800F021FB0446042C01D08A
:101FA0002046AEE7404800F0D5FA0446042C1ED087
:101FB0002046A6E74148864212D13B4800F0CAFAC3
:101FC0000446042C03D020469BE711E05EE000218C
:101FD000344800F003FB0446042C08D0204690E768
:101FE000FFF74EFF0446042C01D0204689E755E058
:101FF000002E06D1FFF744FF0446042C45D02046AE
:102000007FE72E48864207D1274800F0A3FA04460E
:10201000042C3AD0204674E7002523E02248C088EB
:102020006900244A515A884201D128B20090009890
:10203000854215D069001F4A505A1F4900F022F905
:102040000190019801280BD069001A4A505A1A4988
:10205000098800F0C3F90746042F01D0384650E73D
:10206000681C85B2122DD9DB00210F4800F0B6FAAA
:102070000446042C01D0204643E70A4800F06AFADF
:102080000446042C01D020463BE707E0FFF7F8FEAA
:102090000446042C01D0204633E700BF00BF0420D3
:1020A0002FE7000000700008007400081211FFFF05
:1020B000EFEEFFFFAE000020AC000020FFFF0000AD
:1020C000F3B585B0074604253248049032480390A2
:1020D00000200290002400260190FFF79FFE02904E
:1020E0000298012804D12D4804902D4803900AE05D
:1020F0000298002804D12A4804902848039002E05E
:10210000AB2007B0F0BD2749049800F067FA0546F8
:10211000042D01D02846F4E73846069900F05EF910
:102120000646042E01D03046EBE700241CE0600098
:102130001D49085AB84215D061001B4A505A1B4924
:1021400000F0A0F80190019801280BD06100164A18
:10215000505A1649098800F041F90646042E01D06C
:102160003046CEE7601C84B2122CE0DB039800F00E
:10217000F1F90546042D01D02846C2E70021049854
:1021800000F02CFA0546042D01D02846B9E7284670
:10219000B7E70000FF030108000001080070000815
:1021A00000740008EEEE0000AE000020AC0000203D
:1021B000F8B53249112000F065F86946122000F0A8
:1021C00061F8684600882D4948606946A12000F002
:1021D00059F82A48416868460088000401432748A6
:1021E000416001460831132000F04CF823490A31C0
:1021F000142000F047F86946152000F043F86846BF
:1022000000881E49C8606946A22000F03BF81B48C0
:10221000C16868460088000401431848C16001464F
:102220001031162000F02EF86946A32000F02AF89D
:10223000684600880021020C0904114304040D467D
:102240006946172000F01EF82146684600880143C1
:102250000C4620462946FFF75BF806460849FEF77C
:102260000DFF064948611831182000F00BF80349AA
:102270001A31192000F006F8F8BD0000DC0100203A
:1022800000247449FEB506460F4600251548029005
:1022900001200190144C204600900020FFF7BEFD65
:1022A0000546AB2D00D1FEBDA80210494018009094
:1022B000681C8002891E44180CE020880290029855
:1022C000B04206D120464038C08F388000200190AF
:1022D00004E0241F0098801C8442EED800BF0198BF
:1022E000E1E70000555500000000010800700008FB
:1022F000F8B50746042638461138030002F094FC6E
:1023000009060D1C232A3940585F660031480178C0
:10231000384600F09BF8064659E02E48808881B286
:10232000122000F093F806462A484068010CA120CC
:1023300000F08CF806434AE026480189384600F050
:1023400085F8064643E023484189384600F07EF888
:1023500006463CE01F48808981B2152000F076F8DF
:1023600006461C48C068010CA22000F06FF8064326
:102370002DE01848017C384600F068F8064626E053
:1023800014494869144902F0F1FC0090FEF74CFF33
:1023900004460D46A1B2172000F058F806462A045C
:1023A000200C104381B2A32000F050F806430EE049
:1023B0000848018B384600F049F8064607E0054812
:1023C000418B384600F042F8064600E000BF00BFEF
:1023D0003046F8BDDC01002000247449F3B581B01B
:1023E000064604270025164C164800900120FFF7EA
:1023F00015FD0546AB2D00D1FEBDA80212494418BB
:10240000681C8002891E4018009014E02068401C5F
:1024100000280FD12046029900F0E0F80746042F6B
:1024200001D03846E8E73146A01C00F0D7F807464F
:102430003846E1E7241D00988442E7D38020DBE79B
:1024400000000108FF0701080070000870B505468C
:102450000E46002431462846FFF7C0FF0446802C74
:1024600004D131462846FFF72BFE0446204670BDB6
:1024700010B5012000F01CF8002804D0012000F065
:1024800011F800F0E7FE10BD10B50120400300F088
:102490000FF8002805D00120400300F003F800F0F9
:1024A000D9FE10BD01494861704700000004014099
:1024B00001460020044A52690A40002A01D0012046
:1024C00000E0002070470000000401400021204986
:1024D0008279002A35D00A46126803689A430B466F
:1024E0001A600A46526803689A430B465A6002799A
:1024F00051180A6803681A430A60154A926803680B
:102500009A43134B9A601A46D26803689A43104B59
:10251000DA604279102A0CD11A46926803681A438D
:102520000B4B9A601A46D26803681A43084BDA606C
:102530000DE00749427951180A6803681A430A6096
:1025400005E0027951180A6803689A430A607047E7
:102550000004014030B5044604250B20000400F0BF
:1025600071F80546042D17D10C4800690221084373
:102570000A49086108464461006940210843074947
:1025800008610B20000400F05DF80546034800696F
:102590000221884301490861284630BD00200240DD
:1025A00004200D49C968C907C90F002901D00120BD
:1025B00010E00949C96810221140002901D0022009
:1025C00008E00549C96804221140002901D0032010
:1025D00000E00420704700000020024070B504466F
:1025E0000D4604260B20000400F02CF80646042EAD
:1025F00011D10A4800690121084308490861258072
:102600000B20000400F01EF806460448006940084C
:10261000400002490861304670BD000000200240C1
:102620000548006980210840002804D00348024979
:102630004860034848607047002002402301674516
:10264000AB89EFCD10B503460424FFF7A9FF04467C
:1026500003E0FFF7A5FF04465B1E012C01D1002B10
:10266000F7D1002B00D10524204610BDF0B50A4655
:1026700000210023002400BF3DE001258D402B46B2
:1026800015681D402C469C4234D11579012D02D08D
:102690001579022D16D185684F000326BE40B5433B
:1026A000856055794E00B5408668354385608588DC
:1026B00001268E40B5438580858896798E40B6B2D6
:1026C0003543858005684F000326BE40B54305604D
:1026D00015794E00B540066835430560C5684F0062
:1026E0000326BE40B543C560D5794E00B540C668E7
:1026F0003543C560491C1029BFD3F0BDF0B5002398
:1027000000244D07EE0E1546B5402B46CD10AE0009
:1027100005462035AD594E07F70E0F26BE40B5438E
:10272000CE10B60007462037BD51CD10AE003D4655
:10273000AD591D432C46CD10AD003E467451F0BD41
:1027400002460020138A0B40002B01D0012000E03C
:1027500000207047002A01D0816100E001857047A8
:1027600030B5042401F028FC104801F0C7FC1048E3
:1027700000680546643509E04E2001F0ABFC0446D4
:102780000B480068854201D2002030BD0420204063
:102790000028F1D14F2001F09DFC04469B20001B36
:1027A0000449C88301F0BAFA2046EEE7084E00005B
:1027B00090000020B001002000BFFEE708B50A200D
:1027C000009004E068460088401E81B2009168468F
:1027D00000880028F6D108BD00B5012080020C4910
:1027E0000881FFF7EBFF0120C00209490881FFF7CC
:1027F000E5FF01208002064920398861FFF7DEFFEE
:102800000120800202490881FFF7D8FF00BD0000C7
:102810002004004810B508240022200213498861D2
:1028200017E05006020E0120800210492031088175
:10283000FFF7C4FF012080020C498861FFF7BEFF4B
:102840000A48008A0121C9020840002801D001205D
:1028500002432046611ECCB20028E2D10120800252
:10286000024920310881104610BD000000040048D4
:102870001CB50121880401F013F8032080020090A8
:102880000121684601718171032141710021C171EB
:1028900069460548FFF7EAFE0120C0020249886147
:1028A000401088611CBD00000004004800B50120F4
:1028B00080020C490881FFF781FF0120C00209490D
:1028C00020398861FFF77AFF01208002054920390D
:1028D0008861FFF773FF0120800202490881FFF73A
:1028E0006DFF00BD2004004810B5024608241EE01C
:1028F0000120800213490881FFF760FF802010400B
:10290000002805D00120C0020E492039886103E06B
:102910000120C0020B4908815006020EFFF74EFF4E
:1029200001208002074920398861FFF747FF2046D0
:10293000611ECCB20028DBD1012080020149088150
:1029400010BD00002004004800B50120C00211495C
:10295000886140108861FFF731FF0E48008A01212D
:10296000C9020840002801D1012000BD0120C00299
:10297000084920310881FFF721FF0648008A01211C
:10298000C9020840002801D00120EEE7FFF716FF3A
:102990000020EAE70004004800B5012080020C494D
:1029A0000881FFF70BFF0120C00209490881FFF7EA
:1029B00005FF01208002064920398861FFF7FEFEED
:1029C0000120C002024920398861FFF7F7FE00BDEF
:1029D0002004004800B50120800212490881FFF759
:1029E000EDFE0120C0020F4920398861FFF7E6FEA5
:1029F000012080020B4920398861FFF7DFFE09487A
:102A00002038008A0121C9020840002804D048105B
:102A100004490881012000BD01208002014908818C
:102A20000020F8E7200400487047FFB589B00999F5
:102A30000B98461A0A990C98471A099801900A9817
:102A40000090002E00DA7642002F00DA7F420999CA
:102A50000B98884203DB01200890039003E00020DC
:102A6000C043089003900A990C98884203DB012028
:102A70000790029003E00020C04307900290BE42FE
:102A80000BDB00200890029034462046F10F091815
:102A900049100691059725460AE00020039007900B
:102AA0003C462046F90F091849100691059625461F
:102AB0000020049023E0009AD1B2019AD0B2129A79
:102AC00000F0A8FE05990698401806900698A042C6
:102AD0000ADB0698001B069008990198401801909F
:102AE00007990098401800900399019840180190A8
:102AF00002990098401800900498401C0490049893
:102B0000A842D8DD0DB0F0BDF8B505460C46164616
:102B10001F4600BFE1B2E8B23A4600F07BFE641CFB
:102B2000B442F7D1E1B2E8B23A4600F073FEF8BD24
:102B3000FFB587B01C4600200690049000260025B3
:102B4000039069460898087568460999417508997F
:102B5000817569460998C8750798BF2803DD0798ED
:102B60007F38C0B2079021790798814205DC20792F
:102B7000617941180798814202DA05980BB0F0BDDF
:102B800021790798401A801DC0B203900627E0788B
:102B900008280ADC062504E0605DC01907B2681C3D
:102BA000C5B203988542F7DB29E0E07810280BDCFA
:102BB000062505E0605D4000C01907B2681CC5B27B
:102BC00003988542F6DB1AE0E07818280CDC06252D
:102BD00006E0605D41004018C01907B2681CC5B22C
:102BE00003988542F5DB0AE0062505E0605D80007C
:102BF000C01907B2681CC5B203988542F6DB60793C
:102C0000C01907B221790798401A801D205C0690F0
:102C1000E078C117490F0918C9100391002543E056
:102C2000002004903AE0002630E03046F117490FCA
:102C30000918C910C900721A01219140E25D1140C2
:102C400000290DD009988019EA008018C1B2049AB1
:102C500008988018C3B21846109A00F0DBFD13E004
:102C600009998919EB00C918C9B201911099002975
:102C700001D1012100E000210A46049B0899C918EE
:102C8000C8B2019900F0C6FD701CC6B2082ECCDB9C
:102C9000781C07B20498401CC0B2049006990498AE
:102CA0008842C0DB681CC5B203988542B8DB0020AF
:102CB00004904CE000263BE0E078C117490F09186A
:102CC000C910C900421A521E80211141029130469A
:102CD000F117490F0918C910C900721A02999140D9
:102CE000E25D114000290DD009988019EA00801892
:102CF000C1B2049A08988018C3B21846109A00F01E
:102D000089FD13E009998919EB00C918C9B201912D
:102D10001099002901D1012100E000210A46049BFD
:102D20000899C918C8B2019900F074FD701CC6B2A8
:102D3000E078C117490F0918C910C900411AB142FA
:102D4000BADC781C07B20498401CC0B20490069903
:102D500004988842AEDB6846017D06980818401E3C
:102D6000C1B268468175407DE1784018C1B26846BD
:102D7000C175059802E7FFB585B0064617461C46A3
:102D80006946069808726846477206998172C7724A
:102D90002078012802D0029809B0F0BD607802289E
:102DA00001D00298F8E7A078B04204DCA078E1787E
:102DB0004018B04201DA0298EEE7A078301AC6B2A5
:102DC0007000401D205C0490049800020490700084
:102DD000801D205C0499084304900498205C0390B3
:102DE000002001903FE0002536E02846E917490F12
:102DF0000918C910C900691A03D10498401C80B28F
:102E000004902846E917490F0918C910C9006A1A21
:102E100001219140049AA25C114000290AD078193E
:102E2000C1B2019A06988018C3B218460E9A00F0F3
:102E3000F1FC0FE00E98002801D1012000E00020F5
:102E400002467819C1B2019B0698C018C0B2009022
:102E500000F0E0FC681CC5B22079A842C5DC0198EE
:102E6000401CC0B20190039901988842BBDB6846C0
:102E7000017A03980818401EC1B268468172407AF0
:102E800021794018C1B26846C172029884E7FFB543
:102E900085B004460D4616466846057446740E987D
:102EA000401CC0B20E903EE020787F280CDC0F98CA
:102EB00000902178641C029132462946089B0298B2
:102EC000FFF759FF03900BE00F9800902178641CE6
:102ED000029132462946089B0298FFF729FE03908B
:102EE0006846817B0E980818C5B26846877B10E05B
:102EF0000F98002801D1012000E000200346684619
:102F0000C07B421E6846417B781CFFF7FDFD781CA4
:102F1000C7B2681EB842EBDC7F2D04DB00250898A1
:102F2000C0788019C6B220780028BDD16846817B60
:102F30008174C17BC174049809B0F0BD1CB5012136
:102F4000880400F0ADFC01200003009001216846D8
:102F5000017100214171C17169460248FFF786FB8A
:102F60001CBD0000000400484100034A515A820081
:102F7000024B9A58118570471C4E00081000002023
:102F80004100034A515A8200024B9A58916170479E
:102F90001C4E00081000002008B5012227216846B9
:102FA00000F042F86846007808BD1FB50021019185
:102FB000009101220F21684600F036F8FFF7ECFF80
:102FC0000090402168460172002141720721817200
:102FD0000021C17201730122272101A800F09CF891
:102FE0000122302101A800F097F80122382101A820
:102FF00000F092F80122212101A800F08DF8684626
:10300000407A6946097A08436946C97A084369469D
:10301000097B08436946897A0843019001222021EF
:1030200001A800F079F81FBD70B505460E4614469C
:10303000FFF78AFC012803D100F0D2F8C0B270BDBE
:103040003820FFF751FC01200003324948600CE0B2
:10305000304841684068401E2E4A5060002904D123
:10306000022000F0BDF8C0B2E9E7FFF7B3FC00288A
:10307000EED13046FFF738FC0120000325494860B7
:103080000CE0244841684068401E224A50600029F4
:1030900004D1032000F0A4F8C0B2D0E7FFF79AFCF7
:1030A0000028EED1FFF750FC012804D1042000F0E5
:1030B00097F8C0B2C3E73920FFF716FC01200003E0
:1030C000144948600CE0134841684068401E114AAA
:1030D0005060002904D1052000F082F8C0B2AEE7AC
:1030E000FFF778FC0028EED10CE0FFF793FB287087
:1030F0006D1C601EC4B2002C02D1FFF7D7FB03E0A9
:10310000FFF76AFB002CF0D100BFFFF745FC002061
:1031100095E70000B803002070B504460E4615463A
:10312000FFF712FC012803D100F05AF8C0B270BDBD
:103130003820FFF7D9FB01200003284948600CE044
:10314000264841684068401E244A5060002904D146
:10315000022000F045F8C0B2E9E7FFF73BFC002889
:10316000EED13046FFF7C0FB012000031B49486049
:103170000CE01A4841684068401E184A5060002917
:1031800004D1032000F02CF8C0B2D0E7FFF722FCF6
:103190000028EED11BE02078FFF7A6FB01200003FA
:1031A0000E4948600CE00D4841684068401E0B4ADB
:1031B0005060002904D1052000F012F8C0B2B6E733
:1031C000FFF708FC0028EED1641C681EC5B2002D74
:1031D000E1D1FFF7E1FB0020A9E70000B8030020E0
:1031E0007047704700218278002A27D0184A0323AD
:1031F0001B02D21803789B109B00D15802789207CB
:10320000D30EFF229A400B46934319464278920709
:10321000120E03789B07DB0E9A4011430C4A0323DE
:103220001B02D21803789B109B00D1500278D30662
:10323000DB0E01229A40064B1A6007E00278D306A3
:10324000DB0E01229A40024B80331A607047000067
:1032500000E100E000BF00BF00BFBFF34F8F00BF21
:1032600000BF00BF06480749C86000BF00BF00BFDD
:10327000BFF34F8F00BF00BF00BF00BF00BFFDE71F
:103280000400FA0500ED00E070B504460D46FFF7B6
:103290005BFB012802D1FFF7C7FB70BD7820FFF769
:1032A00023FB01200003264988600BE02448816845
:1032B0008068401E224A9060002903D10220FFF757
:1032C000B3FBEAE7FFF786FB0028EFD14020FFF7CA
:1032D0000BFB012000031A4988600BE01848816845
:1032E0008068401E164A9060002903D10320FFF732
:1032F0009BFBD2E7FFF76EFB0028EFD11AE02078A6
:10330000FFF7F2FA012000030D4988600BE00C483A
:1033100081688068401E0A4A9060002903D1042019
:10332000FFF782FBB9E7FFF755FB0028EFD1641CDC
:10333000681EC5B2002DE2D1FFF72EFB0020ACE7DE
:10334000D407002010B50446224601218902044812
:10335000FCF7FCFFFF200349487100F079F810BD2D
:10336000D9030020D40700200EB5AE2000F0ACF841
:10337000202000F0A9F8102000F0A6F8B02000F0FE
:10338000A3F8C82000F0A0F8002000F09DF810205D
:1033900000F09AF8402000F097F8812000F094F8AF
:1033A000FF2000F091F8A12000F08EF8A62000F098
:1033B0008BF8A82000F088F83F2000F085F8A420C2
:1033C00000F082F8D32000F07FF8002000F07CF8B5
:1033D000D52000F079F8F02000F076F8D92000F040
:1033E00073F8222000F070F8DA2000F06DF8122057
:1033F00000F06AF8DB2000F067F8202000F064F8A5
:103400008D2000F061F8142000F05EF8AF2000F08D
:103410005BF80020FFF796FF01200090084B002288
:103420002521019007A0FFF732FD029001200A2319
:103430007F22194600900020FFF7F7FA0EBD00002A
:10344000B85200082053594E5445434F0000000025
:1034500010B500201849086025E018484079164941
:103460000A78012191400840002800D116E0124955
:103470000978B0221143C8B200F026F81049087844
:1034800000F022F8102000F01FF80B490968CA016B
:103490000C4950188021FFF7F7FE00BF064800686E
:1034A000401C05490860044800680828D5DB002056
:1034B0000249487110BD0000D8000020D407002048
:1034C000D4000020D903002010B50446FFF73CFAD1
:1034D000012802D1FFF7A8FA10BD7820FFF704FAFF
:1034E00001200003234988600BE02248816880683E
:1034F000401E204A9060002903D10220FFF794FA71
:10350000EAE7FFF767FA0028EFD18020FFF7ECF930
:1035100001200003174988600BE016488168806825
:10352000401E144A9060002903D10320FFF77CFA63
:10353000D2E7FFF74FFA0028EFD12046FFF7D4F982
:10354000012000030B4988600BE00A48816880680D
:10355000401E084A9060002903D10420FFF764FA56
:10356000BAE7FFF737FA0028EFD1FFF715FA002086
:10357000B2E70000D407002000B585B0012148045F
:1035800000F08EF90121880400F08AF9012040033F
:1035900003900021684601740121C17403A93248D7
:1035A000FFF764F80121084600F09AF90D21012087
:1035B00000F092FE01204003FEF774FF012040035B
:1035C00001900021684601720C2141720121817233
:1035D00001A8FEF77BFF07216846017000214170BA
:1035E00001218170FFF7FEFD012003900021684654
:1035F00001740221C17403A90920C006FFF736F83F
:103600000121084600F06CF90021084600F064FE34
:103610000120FEF747FF012001900021684601725A
:10362000082141720121817201A8FEF74FFF052197
:10363000684601700021417001218170FFF7D2FDC1
:103640000120400203900121684601740021C174E9
:1036500003A90548FFF70AF801204002024920317A
:10366000088105B000BD00000004004810B500F05E
:1036700099FB012040021849088100200921C90650
:1036800008601649086000210120400400F008F994
:1036900000210120800400F003F9002101208005B1
:1036A00000F0FEF800210120000300F019F90021CC
:1036B000012000F0F5F800210120400200F010F98F
:1036C0000021012000F00CF9FFF756FF0121084608
:1036D00000F06CF810BD0000200400480014004801
:1036E0001CB50121880400F0DBF8012040020090A5
:1036F0000121684601710021C17169461E48FEF72B
:10370000B5FF0120400300900021684601710121AE
:10371000C17169461848FEF7A9FFFEF793F89C218E
:103720001648FCF73AFE012040021349886114480C
:10373000007E1249C8800846C0881149497E0902A6
:1037400008430E49C8800E4820308078088108461A
:1037500000890B492031C9780902084307490881CB
:103760000748807E4881084640890549C97E09028C
:103770000843024948811CBD000400481401002090
:10378000A0F7FF1F0748008A0121490308400028CD
:1037900003D001200449087402E0002002490874A3
:1037A0007047000000040048DC01002010B502460C
:1037B0000020154B18688008800003461343184604
:1037C000114B1860114B1B69042423430F4C2361D8
:1037D000012907D130BF23461B690424A3430B4CA6
:1037E00023610FE0022907D120BF084B1B69042485
:1037F000A343064C236105E0044B1B6902242343C9
:10380000024C236110BD00000070004000ED00E09C
:1038100070470000F0B5034614460A46CD176D0FF9
:10382000AD18ED10ED01ED18A8B20246C5176D0EEA
:10383000AD18EE110125B540174E76793543EEB23D
:10384000154D6E717F2B01DC3F2900DDF0BD002C92
:103850000FD00A46CD176D0FAD18ED10ED004E1BC1
:103860000125B5400D4E365C3543EEB20B4D2E545E
:103870000FE00A46CD176D0FAD18ED10ED004E1B91
:103880000125B540FF267540044E365C2E40034DA1
:103890002E5400BFDAE70000D4070020D90300202F
:1038A000002905D0054A52690243044B5A6104E0DD
:1038B000024A52698243014B5A617047001002402C
:1038C000002905D0054A12690243044B1A6104E03D
:1038D000024A12698243014B1A617047001002408C
:1038E000002905D0054A92690243044B9A6104E01D
:1038F000024A92698243014B9A617047001002406C
:10390000002905D0054AD2680243044BDA6004E07E
:10391000024AD2688243014BDA60704700100240CD
:1039200019480068012108431749086008464068A3
:103930001649084014494860084600681449084080
:1039400011490860084600680121890488430E492E
:103950000860084640683F21090488430A494860D6
:103960000846C06A00090001C8620846006BFF21D2
:1039700054318843044908630846406B40084000BE
:103980004863002088607047001002400CB8FF08B0
:10399000FFFFF6FEFEB5044600250026002002903B
:1039A000019000900027704840680C2108400546AF
:1039B000002D06D0042D07D0082D08D00C2D2CD1B9
:1039C00028E06A4820602BE06848206028E06648CC
:1039D00040680F2189040840064663484068032177
:1039E000C90308400290B00C861C0298002803D13D
:1039F0005F48374647430BE05B48C06A0007000F4B
:103A0000401C019059480199FCF7C9FC70430746D6
:103A1000276005E05748206002E05448206000BF5E
:103A200000BF51484068F021084005462D09524822
:103A3000405D009021680098C14061604A4840683C
:103A400007210902084005462D0A4B48405D0090B9
:103A500061680098C140A1604348006BFF210131BB
:103A60000840884202D04548E0600DE03E4840688A
:103A7000012189030840884203D0A0684008E06023
:103A800002E0A0688008E0603748006B40210840F1
:103A9000402802D03A48206102E00120C0032061A2
:103AA0003148006B10210840102802D02F48606177
:103AB00001E0206860612C48006B8007800F0028BF
:103AC00002D1A068A06119E02748006B8007800F31
:103AD000012802D12068A06110E02348006B800714
:103AE000800F022802D18003A06107E01E48006B0E
:103AF0008007800F032801D11C48A0611A48006B81
:103B0000032109040840002802D1A068E06120E0F8
:103B10001548006B0321090408400121090488426B
:103B200002D12068E06114E00F48006B0321090412
:103B3000084001214904884202D18010E06108E078
:103B40000948006B032109040840884201D1074855
:103B5000E0610548006B80210840802802D00548BC
:103B6000206200E02762FEBD0010024000127A00D1
:103B700000093D00006CDC0200000020809FD500A1
:103B80001280000010B502460021002300205111D0
:103B9000002902D10C4C23680BE0012902D10A4C08
:103BA000236A06E0022902D1074C636A01E0064C51
:103BB000636BD106C90E01248C401C40002C01D03F
:103BC000012000E0002010BD0010024002484068C3
:103BD0000C2108407047000000100240002806D069
:103BE0000649096801221143044A116005E00349AE
:103BF000096849084900014A1160704700100240F5
:103C0000002807D007490968012212061143054A16
:103C1000116006E003490968012212069143014A36
:103C20001160704700100240074A52687B23DB0393
:103C30009A43054B5A601A46526803460B431A438F
:103C4000014B5A60704700000010024001460020FE
:103C5000044A50688008800002460A431046014A20
:103C6000506070470010024030B504460D461020E9
:103C700009490881002000F0E3FB002304E000F084
:103C8000DAFBE054581CC3B2AB42F8DB1020092128
:103C9000C906886130BD00002000004830B50446E8
:103CA0000D46102009490881802000F0C9FB00233F
:103CB00004E0E05C00F0C4FB581CC3B2AB42F8DB8C
:103CC00010200921C906886130BD0000200000488D
:103CD00000B5FF20053000F011FAFF20113000F090
:103CE0000DFA00BD10B5002406E06100094A505AE3
:103CF00000F004FA601CC4B2032CF6DB002406E0DA
:103D00006100054A505A00F0F9F9601CC4B2182C41
:103D1000F6D310BD240000202A00002000B50020AA
:103D2000164908700BE0154909784900144A505AA1
:103D300000F0E4F911480078401C104908700F4861
:103D400000780528EFDB0F48006864300E490860F2
:103D50000CE0272000F0BEF9084908700A48006806
:103D600008490968884201D2012000BD0348007853
:103D7000C0210840C028ECD10020F6E77C000020DC
:103D80005A000020900000207800002010B500F0BC
:103D900019F910200921C9068861FFF7A3FFFFF771
:103DA000BDFF10BD00B5074800F0A8F90548183060
:103DB00000F0A4F9044800F0A1F9FF20453000F01C
:103DC0009DF900BDEA0D0000320F000010B52A4831
:103DD0000078002802D0012847D11AE001210920EB
:103DE000C006FEF7ADFC012812D1244800686430FB
:103DF000234908600B212348FFF736FFFFF768FFD0
:103E00001E48006864301E49086001201A49087085
:103E10002FE080211C4800F0B3F9012819D00022BE
:103E200010200923DB0698610020134B1870002135
:103E300004E01448405C4240481CC1B20929F8DB48
:103E400010480B38007D904201D0022010BD0120A7
:103E5000FCE70B48006809490968884204D2002041
:103E6000054908700320F1E703E0002002490870CB
:103E700000BF00BF0020E9E77D0000209000002087
:103E800080000020BB0100200030014010B5044636
:103E900000204049087008700BE03E49097849004D
:103EA0003D4A505A00F02AF93A480078401C3949F6
:103EB0000870384800780528EFDB3848006864301F
:103EC000374908600CE0272000F004F931490870F8
:103ED0003348006831490968884201D2012010BD89
:103EE0002C480078A0210840A028ECD12B4800687D
:103EF00064302B49086007E02948006827490968B1
:103F0000884201D20220EAE701210920C006FEF71B
:103F100017FC0128F0D10B212046FFF7BFFE1F48F8
:103F2000006864301E49086007E01D4800681B49AE
:103F30000968884201D20320D1E78021194800F0A6
:103F40001FF90128F1D010200921C906886100203D
:103F500010490870114800686430114908600FE08A
:103F60000120FDF7D1FE282000F0B4F809490870BF
:103F70000B48006809490968884201D20420AEE76D
:103F800004480078082108400028E9D0FFF7C6FE61
:103F90000020A4E7740000206400002090000020AE
:103FA000700000200030014010B5044631210902A4
:103FB000601800F0A3F810BD00B5FF20053000F038
:103FC0009DF800BD00B589B001214804FFF768FCE9
:103FD00001218804FFF764FC002204210920C006A7
:103FE000FEF78CFB002205210920C006FEF786FBA8
:103FF000002206210920C006FEF780FB00220721CF
:104000000920C006FEF77AFBE0200790022108A8ED
:104010000170002181700221C1700321417007A944
:104020000920C006FEF722FB10200790012108A8F6
:10403000017000218170032141700121C17007A925
:104040000920C006FEF712FB01200790012108A8F5
:10405000017000218170032141700021C17007A906
:104060001A48FEF703FB19216846017601214176C3
:10407000817606A8FFF7B6F801210803FFF730FCA8
:10408000134800F05FF8002168468180072109028B
:10409000018100214181818101214902C1813021B9
:1040A0000182002141828182FF210531C18001A965
:1040B000074800F06FF801210903054800F096F861
:1040C0000121034800F030F809B000BD00040048A9
:1040D0000030014010B503461020074908811846FA
:1040E00000F0AEF900F0A7F9044610200921C90636
:1040F0008861204610BD00002000004800B503463E
:104100000120C0030343102006490881181200F063
:1041100097F9D8B200F094F910200921C9068861F6
:1041200000BD000020000048002904D00288402380
:104130001A43028003E00288014B1A400280704754
:10414000BFFF000010B504460B48844208D101218E
:104150008014FFF7D5FB0021A014FFF7D1FB0AE084
:104160000648844207D101210014FFF7A9FB002172
:104170002014FFF7A5FB10BD0030014000380040BF
:104180000246002013890B40002B01D0012000E0E3
:104190000020704710B500220288C1239B011A40FD
:1041A0000B88CC892343CC8823430C8923434C8937
:1041B00023438C8923431A4302808288084B1A4088
:1041C0008B881A4382800B8A03820288054B1A402F
:1041D0004B881A430280838B034C2340838310BD9A
:1041E000FFF00000FBFF0000FFF700008288034B98
:1041F0001A40828082880A4382807047FFEF000065
:104200001CB501214804FFF74BFB01218804FFF78F
:1042100047FB01216846017100218171C1710321B1
:1042200041712820009069460C48FEF71FFA0120D2
:10423000C003009069460920C006FEF717FA102057
:1042400000900021684601710121C1710321417173
:1042500069460248FEF70AFA1CBD00000004004847
:10426000002113E008220B4B1A814206100E094A66
:10427000203A128A10231A40002A01D0012210434A
:104280000822044B203B9A614A1CD1B20829E9DB81
:104290007047000020040048002116E008220C4B63
:1042A0001A8180220240002A04D02022084B203BA1
:1042B0009A6102E02022064B1A814206100E082263
:1042C000034B203B9A614A1CD1B20829E6DB7047B8
:1042D000200400487047000030B500228B071C0FF7
:1042E0000F23A3401A460B4B8C10A4001B59934379
:1042F000084C8D10AD00635123468C10A4001B594F
:104300008C07250F0446AC402343024C8D10AD00B2
:10431000635130BD080001400CB5002001900090B1
:10432000314800680121090408432F49086000BF93
:104330002D48006801214904084000900198401C64
:1043400001900098002804D10521090301988842B2
:10435000EED125480068012149040840002802D018
:104360000120009001E0002000900098012839D140
:1043700011201E4908601C4840681B4948600846D7
:1043800040684860084640687F21C9038843164951
:1043900048600846406811210904084312494860F2
:1043A000084600680121090608430F49086000BF5C
:1043B0000D4800680121490608400028F8D00A4845
:1043C000406880088000084948600846406802212B
:1043D00008430549486000BF034840680C21084075
:1043E0000828F9D10CBD0000001002400020024056
:1043F00010B5FFF795FA0120FFF7F0FB00BF012091
:10440000FFF7C0FB0028FAD00521C9040020FFF700
:104410000BFC0120FFF7F4FB00BF1920FFF7B2FBF4
:104420000028FAD00220FFF711FC00BFFFF7CEFBF7
:104430000828FBD110BD00B5FF2000F001F800BD39
:10444000014600BF08480089022210400028F9D028
:104450000548017300BF04480089C007C00F002849
:10446000F9D00148007B70470030014010B500F0E2
:1044700079F817480068401C1549086015480088FD
:10448000401C00B213490880134900228A5E904202
:104490001CDD12480078002802D00120088002E0CC
:1044A0000F480D4908800D480278012109030D4885
:1044B000FEF750F909480078002801D1012000E0FA
:1044C00000200649087000200249088010BD000045
:1044D000900000208A0000208C000020880000202E
:1044E000E70300000004004810B51B4800680121E4
:1044F00008431949086008464068184908401649A9
:104500004860084600681649084013490860084694
:1045100000680121890488430F4908600846406803
:104520003F21090488430C4948600846C06A0009D5
:104530000001C8620846006BFF21543188430649D8
:1045400008630846406B40084000486300208860CC
:10455000FFF7E2FE10BD0000001002400CB8FF089B
:10456000FFFFF6FE04480068002804D002480068F7
:10457000401E0149086070471800002010B505482A
:104580000068054940180549886205490878FFF721
:104590000BFD10BD9000002010270000B00100208E
:1045A000DC010020F0B58BB0F048C07A14286ED042
:1045B00012DC05285CD008DC01281ED002282BD094
:1045C000032837D0042875D143E0112860D0122881
:1045D00075D01328F7D19DE018286DD006DC15287A
:1045E0006BD016286AD01728EDD1E6E019287DD0C7
:1045F0001A287CD0AA28E6D16EE10120DB49087098
:104600000D461835002404E0295DD84A601C115479
:10461000C4B2082CF8DB7FE10220D4490870D44DE5
:10462000002404E0295DD14A601C1154C4B2082C56
:10463000F8DB71E10320CD490870CD4D0835002429
:1046400004E0295DC94A601C1154C4B2052CF8DB92
:1046500062E10420C5490870C54D1035002404E00E
:10466000295DC24A601C1154C4B2042CF8DB53E12A
:104670000520BE490870BE4D1435002404E0295DB4
:10468000BA4A601C1154C4B2042CF8DB44E157E070
:104690001120B64908700846007BB549091F08700B
:1046A0001120FDF725FE0646B149091F0878FFF7DE
:1046B0007BFC31E12FE102E094E059E070E0122050
:1046C000AA4908700846007BA949091F48600846A6
:1046D0004068A649497B09020843A549091F48606B
:1046E00008464068A149897B090401E090E0A5E003
:1046F00008439F49091F4860084640689B49C97B99
:10470000090608439A49091F48601220FDF7F0FD89
:10471000064601E11320954908700846007B94493C
:10472000091F0881084600899049497B090208430E
:104730008F49091F08811320FDF7DAFD0646EBE0DB
:1047400014208A4908700846007B8949091F48815E
:10475000084640898549497B090208438449091F65
:104760004881FCF721FF1420FDF7C2FD0646D3E087
:1047700015207E4908707F4840687D49091FC86040
:104780000D460C35002404E0295D784A601C115464
:10479000C4B2052CF8DB1520FDF7AAFD0646BBE0E8
:1047A0001620724908700846007B7149091F087479
:1047B0001620FDF79DFD0646AEE017206B490870F8
:1047C0006B4D1035002406E068480B30611C405CDE
:1047D0002855601CC4B2042CF6DB1720FDF788FDB9
:1047E000064699E01820614908700846007B604938
:1047F000091F08830846008B5C49497B090208436E
:104800005B49091F08831820FDF772FD064683E007
:104810001920564908700846007B5549091F4883EE
:104820000846408B5149497B090208435049091FFA
:1048300048831920FDF75CFD06466DE01A204B49C0
:1048400008700846007B886108468069497B090238
:1048500008434649886108468069897B0904084302
:104860004249886108468069C97B090608433F4977
:104870008861404949683E4A121FD268881AFCF78D
:10488000A4FA00223C4B03910290FCF7A9FA07918D
:10489000069036498869FCF798FA0022364B019158
:1048A0000090FCF79DFA03910290FBF729FE074662
:1048B000FCF7BAFB05910490079B069AFCF70AF8EF
:1048C00009910890FBF71CFE2949091F4861172030
:1048D000FDF70EFD06461FE0AA2024490870244873
:1048E000001F007848700846408C00128870084607
:1048F000408CC8700020087148710720887108201A
:10490000C871AA2008720020487204260846408C0C
:10491000401C488400E026E000BF002408E0134863
:10492000407A1249095D484010494872601CC4B27F
:10493000092CF4DB0D48C07A112803DA0B48FFF785
:10494000A5FA06E0042E03D10848FFF79FFA00E01D
:1049500000BF0B210548FBF720FD0B2103480B305E
:10496000FBF719FD00BF00BF0BB0F0BDB001002088
:10497000E0010020F80100200000F03F10B5FFF733
:1049800025FA1E49087008460078002814D0084609
:104990000078012819D10020FEF7F2FAFFF702FE95
:1049A0000020FEF7E1FAFDF7DBFE15480068154927
:1049B00040181549886208E01348806A1049096860
:1049C000884202D2FEF752FE00BF104800788007EE
:1049D000C00F002807D00D480078022188430B49FA
:1049E000087000F017F80A480078C007C00F0028C8
:1049F00002D000200649087010BD00009C00002075
:104A00009000002088130000B001002094000020D6
:104A1000B8030020F0B587B06548406800287DDD08
:104A2000644840686249C968401A63498861886976
:104A3000FCF7CBF904460022604BFCF7D1F9019159
:104A400000905B494869FCF7EFFA0646019B009A23
:104A5000FCF7C6F900225A4B03910290FBF70AFFBC
:104A600005910490FCF75AF953498861504A11891D
:104A7000514A9069FBF79DFC4D49098948434E49CD
:104A800088614B480089012813DD494804890246A2
:104A90001189494A9069FBF78CFCE00F001940101E
:104AA000814206DB444880694149098940184249EE
:104AB0008861404843A142684548FBF7C7FB012095
:104AC0000090444B0C22002101904148FEF7DFF991
:104AD000059037494869404900F048F90546FCF718
:104AE0007DFB044622463DA13948FBF7AFFB012080
:104AF0000090384B1622002101903548FEF7C7F987
:104B000005902D4838A182693148FBF79FFB0120B1
:104B10000090304B20220021019000E041E02C4821
:104B2000FEF7B5F9059024481C22825E32A1284880
:104B3000FBF78CFB01200090264B2A2200210190DC
:104B40002348FEF7A4F90590194802782DA12048C2
:104B5000FBF77CFB012000901E4B0C2250210190A2
:104B60001B48FEF794F905901148027C29A11848CA
:104B7000FBF76CFB01200090164B16225021019090
:104B80001348FEF784F905900948406808490989E7
:104B9000401809498969884207DA2248064988612C
:104BA00003E02048401E0449886107B0F0BD0000C2
:104BB000DC010020F8010020B00100200000F03FDF
:104BC0000000E03F436F64202564202020000000A7
:104BD000E00700201E4E00080050C347436F656683
:104BE00020256420202000004E6574746F3D202530
:104BF000642020202000000056626174203D2025A2
:104C00006420000043686E6C203D20256420202035
:104C10002000000045646974203D20256420202088
:104C2000200000000200008030B47446641E257825
:104C3000641CAB4204D3635D5B00E31830BC1847CF
:104C40001D46F8E710B5002819DB1A4A03231B029A
:104C5000D21883089B00D2588307DC0EFF23A340A1
:104C60009A438B071B0E8407E40EA3401A43114B93
:104C7000032424021B198408A4001A5118E00E4AC8
:104C800003071B0F083B9B089B00D2588307DC0ED1
:104C9000FF23A3409A438B071B0E8407E40EA34017
:104CA0001A43054B0407240F083CA408A4001A511A
:104CB00010BD000000E100E01CED00E072B67D21B7
:104CC000C90024480068FBF76AFB0446601E2249BD
:104CD000884200D90CE0601E204948610321081F6A
:104CE000FFF7B0FF00201D4988610720086100BF61
:104CF0000021481EFFF7A6FFFFF77AFB1848FEF7D2
:104D000049FE62B6FEF71AF9FFF740F8FCF776FCA9
:104D1000FEF7E6FCFDF784FCFDF7AAFDFEF724FB99
:104D2000FEF743F9FCF7FAFFFFF728FC11E0FCF768
:104D300083FCFFF723FEFEF725FD0A4800680A49B9
:104D40000968884205D208480068FF30F5300549F7
:104D50000860ECE7DC000020FFFFFF0000E000E05F
:104D6000F00000201C0000209000002070B54200E0
:104D700064414B005C41120E39D01B0E38D0FF2A23
:104D80003CD0FF2B3AD040024902400A490A0600B3
:104D900045184E43000A090AD2184843ED017F3AEC
:104DA0000104731A4019190C4318990F04D00121FA
:104DB0005B0849075B1A521CD80904D3401CF50351
:104DC00001D19D0607D0FF2A08D2D50506D0E407F9
:104DD0002043401970BD0125A843F4E7002A01DCF7
:104DE000E00770BD2402FF202043C00570BD1B0EEC
:104DF000FF2A03D0FF2B01D0E00770BDFF2645003E
:104E00003606B54206D84D00B54203D8D218FF2A5F
:104E100000D0E7E7004870BD0000C07F001001022D
:104E2000205F0B00C300C800CB00D200E100EC0102
:104E30000101100113011A0121012C013B01400164
:104E400047014A0151015C0163016E01790184014E
:104E50008F019A01A501B001BB01BE01C301D001C0
:104E6000DF01EC01F5020802150220022D023A02D0
:104E7000450250025D026A0271027A0285028E02C8
:104E80009D02AA02B902C402D302E002EB02F603B9
:104E900003030E0321032C0337034203490350038A
:104EA000570366037303780383038E039703A203F8
:104EB000AD03B403BF03CA03CD03D203DD03E00394
:104EC000EF03FA04050410041B0422042B0432042B
:104ED0003D044804570462046D0476047F04820490
:104EE0008B0200000000017E0103070000000700A4
:104EF000074000C8017800CE0178004E0008000588
:104F000018012401FF072401C4000A0C001200123A
:104F1000008C0160001800C60020012001C00007BD
:104F2000EC00120112012C01C000B00000010107C9
:104F30000003F800060301040301040603F800055A
:104F40000A0004001F0004000A00072000200020BF
:104F500000FC012000200020000200048003032048
:104F60000020002000018001030007F80007000571
:104F7000FC00020102010201FC00030401FE010029
:104F8000010584014201220112010C010584000285
:104F90000112011201EC0005300028002400FE017E
:104FA0002000059E00120112011201E20005F80026
:104FB000140112011201E000050200820162001AD0
:104FC00000060005EC00120112011201EC00051CA4
:104FD0000022012201A2007C000198010200049835
:104FE000030620005000500088008800040107508C
:104FF00000500050005000500050005000060401C6
:105000008800880050005000200004020062011255
:10501000000C0009F800040172028A028A02FA02F6
:1050200082008400780006C00178004600460078BF
:1050300000C00105FE01120112011201EC00067808
:10504000008400020102010201020106FE010201C8
:10505000020102018400780005FE01120112011212
:1050600001020105FE011200120012001200067872
:10507000008400020122012201E20106FE0110006B
:10508000100010001000FE01030201FE01020104E5
:10509000000102010201FE0005FE0130004800840B
:1050A00000020104FE0100010001000107FE0106EB
:1050B000001800600018000600FE0106FE01060050
:1050C000180060008001FE010778008400020102E0
:1050D0000102018400780005FE0122002200220066
:1050E0001C00077800840002010201020384047896
:1050F0000406FE012200220062009C000001050C53
:1051000001120112011201E2000502000200FE017B
:105110000200020006FE000001000100010001FE85
:1051200000050E007000800170000E00090E007076
:1051300000800170000E007000800170000E0005FC
:10514000860148003000480086010506001800E08E
:105150000118000600058201420132010A01060120
:1051600003FF0701040104030700F800000703011F
:10517000040104FF070710000800040002000400F7
:1051800008001000060004000400040004000400ED
:1051900004020100020005C000280128012801F0D6
:1051A0000105FF01080108010801F00004F00008F2
:1051B000010801080105F000080108010801FF01CC
:1051C00005F000280128012801B00003FE010900B4
:1051D000090005F000080508050805F80305FF01AA
:1051E000080008000800F00101FA01020804FA03AF
:1051F00005FF01200050008800000101FF0107F8B1
:105200000108000800F00108000800F00105F8019D
:10521000080008000800F00105F000080108010876
:1052200001F00005F807080108010801F00005F089
:1052300000080108010801F80703F8011000080040
:1052400004300128014801C80003FE0008010801DC
:1052500005F800000100010001F8010518006000D8
:10526000800160001800077800800160001800606D
:10527000008001780005080190006000900008019E
:1052800005180060068001600018000488014801CC
:10529000280118010420002000DE03010401FF079B
:1052A000040104DE0320002000076000100010004D
:1052B00020004000400030000102205F0B00C300CE
:1052C000C800CB00D200E100EC0101011001130184
:1052D0001A0121012C013B01400147014A01510102
:1052E0005C0163016E01790184018F019A01A501BE
:1052F000B001BB01BE01C301D001DF01EC01F50229
:105300000802150220022D023A02450250025D02F7
:105310006A0271027A0285028E029D02AA02B90215
:10532000C402D302E002EB02F60303030E032103DF
:105330002C033703420349035003570366037303E7
:10534000780383038E039703A203AD03B403BF0363
:10535000CA03CD03D203DD03E003EF03FA0405041F
:1053600010041B0422042B0432043D044804570497
:1053700062046D0476047F0482048B020000000046
:10538000017E0103070000000700074000C8017804
:1053900000CE0178004E0008000518012401FF0727
:1053A0002401C4000A0C00120012008C01600018D5
:1053B00000C60020012001C00007EC00120112010C
:1053C0002C01C000B000000101070003F800060333
:1053D00001040301040603F800050A0004001F008D
:1053E00004000A0007200020002000FC012000200B
:1053F00000200002000480030320002000200001A0
:105400008001030007F800070005FC00020102010B
:105410000201FC00030401FE0100010584014201B8
:10542000220112010C01058400020112011201EC9B
:105430000005300028002400FE012000059E001217
:105440000112011201E20005F8001401120112011B
:10545000E000050200820162001A00060005EC006F
:10546000120112011201EC00051C0022012201A20E
:10547000007C0001980102000498030620005000FF
:105480005000880088000401075000500050005070
:1054900000500050005000060401880088005000B1
:1054A00050002000040200620112000C0009F80004
:1054B000040172028A028A02FA02820084007800E1
:1054C00006C0017800460046007800C00105FE01D4
:1054D000120112011201EC000678008400020102A0
:1054E000010201020106FE01020102010201840023
:1054F000780005FE01120112011201020105FE01F0
:10550000120012001200120006780084000201222C
:10551000012201E20106FE0110001000100010003F
:10552000FE01030201FE0102010400010201020169
:10553000FE0005FE01300048008400020104FE0167
:1055400000010001000107FE0106001800600018BC
:10555000000600FE0106FE01060018006000800142
:10556000FE01077800840002010201020184007834
:105570000005FE012200220022001C0007780084A2
:10558000000201020102038404780406FE012200E5
:10559000220062009C000001050C011201120112A0
:1055A00001E2000502000200FE010200020006FE08
:1055B000000001000100010001FE00050E00700066
:1055C000800170000E00090E007000800170000E56
:1055D000007000800170000E000586014800300058
:1055E000480086010506001800E0011800060005C5
:1055F0008201420132010A01060103FF0701040191
:1056000004030700F80000070301040104FF070773
:10561000100008000400020004000800100006004A
:10562000040004000400040004000402010002005D
:1056300005C000280128012801F00105FF0108012B
:1056400008010801F00004F0000801080108010544
:10565000F000080108010801FF0105F000280128F9
:10566000012801B00003FE010900090005F000084F
:105670000508050805F80305FF01080008000800F3
:10568000F00101FA01020804FA0305FF01200050AD
:10569000008800000101FF0107F80108000800F080
:1056A0000108000800F00105F801080008000800E2
:1056B000F00105F000080108010801F00005F807F5
:1056C000080108010801F00005F0000801080108C0
:1056D00001F80703F8011000080004300128014810
:1056E00001C80003FE000801080105F800000100E0
:1056F000010001F801051800600080016000180039
:1057000007780080016000180060008001780005C3
:1057100008019000600090000801051800600680F4
:1057200001600018000488014801280118010420C4
:10573000002000DE03010401FF07040104DE032052
:105740000020000760001000100020004000400012
:10575000300080807F7E7D7C7B7A79787776767565
:105760007473727171706F6E6E6D6C6C6B6A6A6956
:105770006868676666656464636362616160605FF0
:105780005F5E5E5D5D5C5C5B5B5A5A595958585769
:1057900057565655555554545353525252515150D1
:1057A00050504F4F4F4E4E4D4D4D4C4C4C4B4B4B24
:1057B0004A4A4A494949484848474747474646466A
:1057C00045454544444444434343434242424241A5
:1057D00041418182838485868788898B8C8D8E8FD9
:1057E000919293959697999A9C9D9FA0A2A3A5A705
:1057F000A8AAACAEB0B2B3B5B7B9BCBEC0C2C5C73B
:10580000C9CCCED1D4D7D9DCDFE2E6E9ECF0F3F7AE
:10581000FAFE00003458000800000020F0000000EC
:10582000F800000824590008F0000020680D00006E
:105830001401000800000000010203040102030437
:1058400006070809000400480000000000000000EE
:105850000000000000000000D90700080009000255
:105860000103A104020541060F1388185219872667
:10587000002C052D902ECC2F3330003100370B3803
:105880000039003A953C88181B58306F04019F116D
:105890004025555A705C100140259F11555A705C87
:1058A0000C010000000000000000000000000000EB
:1058B0000000000000000000C80000000000000020
:1058C00000000000000000000000000000000000D8
:1058D0000000000000000000C80000000000000000
:1058E000000011001200130014001500160017002C
:1058F0001800190000000000000000000000000077
:105900000000000000000000000000000000000097
:10591000006CDC0200000000000000000102030433
:045920000607080965
:04000005080000B53A
:00000001FF
